{
  "_format": "hh-sol-artifact-1",
  "contractName": "Lev3xAaveLeverageModule",
  "sourceName": "contracts/modules/Lev3xAaveLeverageModule.sol",
  "abi": [
    {
      "inputs": [
        {
          "internalType": "contract IController",
          "name": "_controller",
          "type": "address"
        },
        {
          "internalType": "contract ILendingPoolAddressesProvider",
          "name": "_lendingPoolAddressesProvider",
          "type": "address"
        }
      ],
      "stateMutability": "nonpayable",
      "type": "constructor"
    },
    {
      "anonymous": false,
      "inputs": [
        {
          "indexed": false,
          "internalType": "contract ISetToken",
          "name": "_setToken",
          "type": "address"
        },
        {
          "indexed": false,
          "internalType": "bool",
          "name": "_allowed",
          "type": "bool"
        }
      ],
      "name": "AnyBotAllowedUpdated",
      "type": "event"
    },
    {
      "anonymous": false,
      "inputs": [
        {
          "indexed": true,
          "internalType": "bool",
          "name": "_anySetAllowed",
          "type": "bool"
        }
      ],
      "name": "AnySetAllowedUpdated",
      "type": "event"
    },
    {
      "anonymous": false,
      "inputs": [
        {
          "indexed": true,
          "internalType": "contract ISetToken",
          "name": "_setToken",
          "type": "address"
        },
        {
          "indexed": true,
          "internalType": "bool",
          "name": "_added",
          "type": "bool"
        },
        {
          "indexed": false,
          "internalType": "contract IERC20",
          "name": "_assets",
          "type": "address"
        }
      ],
      "name": "BorrowAssetsUpdated",
      "type": "event"
    },
    {
      "anonymous": false,
      "inputs": [
        {
          "indexed": true,
          "internalType": "contract ISetToken",
          "name": "_setToken",
          "type": "address"
        },
        {
          "indexed": true,
          "internalType": "address",
          "name": "_caller",
          "type": "address"
        },
        {
          "indexed": true,
          "internalType": "bool",
          "name": "_allowed",
          "type": "bool"
        }
      ],
      "name": "CallerPermissionSet",
      "type": "event"
    },
    {
      "anonymous": false,
      "inputs": [
        {
          "indexed": true,
          "internalType": "contract ISetToken",
          "name": "_setToken",
          "type": "address"
        },
        {
          "indexed": true,
          "internalType": "bool",
          "name": "_added",
          "type": "bool"
        },
        {
          "indexed": false,
          "internalType": "contract IERC20",
          "name": "_assets",
          "type": "address"
        }
      ],
      "name": "CollateralAssetsUpdated",
      "type": "event"
    },
    {
      "anonymous": false,
      "inputs": [
        {
          "indexed": true,
          "internalType": "contract ISetToken",
          "name": "_setToken",
          "type": "address"
        },
        {
          "indexed": true,
          "internalType": "contract IERC20",
          "name": "_collateralAsset",
          "type": "address"
        },
        {
          "indexed": true,
          "internalType": "contract IERC20",
          "name": "_repayAsset",
          "type": "address"
        },
        {
          "indexed": false,
          "internalType": "contract IExchangeAdapter",
          "name": "_exchangeAdapter",
          "type": "address"
        },
        {
          "indexed": false,
          "internalType": "uint256",
          "name": "_totalRedeemAmount",
          "type": "uint256"
        },
        {
          "indexed": false,
          "internalType": "uint256",
          "name": "_totalRepayAmount",
          "type": "uint256"
        },
        {
          "indexed": false,
          "internalType": "uint256",
          "name": "_protocolFee",
          "type": "uint256"
        }
      ],
      "name": "LeverageDecreased",
      "type": "event"
    },
    {
      "anonymous": false,
      "inputs": [
        {
          "indexed": true,
          "internalType": "contract ISetToken",
          "name": "_setToken",
          "type": "address"
        },
        {
          "indexed": true,
          "internalType": "contract IERC20",
          "name": "_borrowAsset",
          "type": "address"
        },
        {
          "indexed": true,
          "internalType": "contract IERC20",
          "name": "_collateralAsset",
          "type": "address"
        },
        {
          "indexed": false,
          "internalType": "contract IExchangeAdapter",
          "name": "_exchangeAdapter",
          "type": "address"
        },
        {
          "indexed": false,
          "internalType": "uint256",
          "name": "_totalBorrowAmount",
          "type": "uint256"
        },
        {
          "indexed": false,
          "internalType": "uint256",
          "name": "_totalReceiveAmount",
          "type": "uint256"
        },
        {
          "indexed": false,
          "internalType": "uint256",
          "name": "_protocolFee",
          "type": "uint256"
        }
      ],
      "name": "LeverageIncreased",
      "type": "event"
    },
    {
      "anonymous": false,
      "inputs": [
        {
          "indexed": true,
          "internalType": "address",
          "name": "previousOwner",
          "type": "address"
        },
        {
          "indexed": true,
          "internalType": "address",
          "name": "newOwner",
          "type": "address"
        }
      ],
      "name": "OwnershipTransferred",
      "type": "event"
    },
    {
      "anonymous": false,
      "inputs": [
        {
          "indexed": true,
          "internalType": "contract IERC20",
          "name": "_underlying",
          "type": "address"
        },
        {
          "indexed": true,
          "internalType": "contract IAToken",
          "name": "_aToken",
          "type": "address"
        },
        {
          "indexed": true,
          "internalType": "contract IVariableDebtToken",
          "name": "_variableDebtToken",
          "type": "address"
        }
      ],
      "name": "ReserveTokensUpdated",
      "type": "event"
    },
    {
      "anonymous": false,
      "inputs": [
        {
          "indexed": true,
          "internalType": "contract ISetToken",
          "name": "_setToken",
          "type": "address"
        },
        {
          "indexed": true,
          "internalType": "bool",
          "name": "_added",
          "type": "bool"
        }
      ],
      "name": "SetTokenStatusUpdated",
      "type": "event"
    },
    {
      "inputs": [],
      "name": "UNISWAP_INTEGRATION",
      "outputs": [
        {
          "internalType": "string",
          "name": "",
          "type": "string"
        }
      ],
      "stateMutability": "view",
      "type": "function"
    },
    {
      "inputs": [
        {
          "internalType": "contract ISetToken",
          "name": "_setToken",
          "type": "address"
        },
        {
          "internalType": "contract IERC20",
          "name": "_newBorrowAssets",
          "type": "address"
        }
      ],
      "name": "addBorrowAssets",
      "outputs": [],
      "stateMutability": "nonpayable",
      "type": "function"
    },
    {
      "inputs": [
        {
          "internalType": "contract ISetToken",
          "name": "_setToken",
          "type": "address"
        },
        {
          "internalType": "contract IERC20",
          "name": "_newCollateralAssets",
          "type": "address"
        }
      ],
      "name": "addCollateralAssets",
      "outputs": [],
      "stateMutability": "nonpayable",
      "type": "function"
    },
    {
      "inputs": [
        {
          "internalType": "contract ISetToken",
          "name": "",
          "type": "address"
        }
      ],
      "name": "allowedSetTokens",
      "outputs": [
        {
          "internalType": "bool",
          "name": "",
          "type": "bool"
        }
      ],
      "stateMutability": "view",
      "type": "function"
    },
    {
      "inputs": [],
      "name": "anySetAllowed",
      "outputs": [
        {
          "internalType": "bool",
          "name": "",
          "type": "bool"
        }
      ],
      "stateMutability": "view",
      "type": "function"
    },
    {
      "inputs": [
        {
          "internalType": "contract ISetToken",
          "name": "_setToken",
          "type": "address"
        },
        {
          "internalType": "contract IERC20",
          "name": "_collateralAsset",
          "type": "address"
        },
        {
          "internalType": "contract IERC20",
          "name": "_repayAsset",
          "type": "address"
        },
        {
          "internalType": "uint256",
          "name": "_redeemQuantityUnits",
          "type": "uint256"
        },
        {
          "internalType": "uint256",
          "name": "_minRepayQuantityUnits",
          "type": "uint256"
        },
        {
          "internalType": "string",
          "name": "_tradeAdapterName",
          "type": "string"
        },
        {
          "internalType": "bytes",
          "name": "_tradeData",
          "type": "bytes"
        }
      ],
      "name": "autoDelever",
      "outputs": [],
      "stateMutability": "nonpayable",
      "type": "function"
    },
    {
      "inputs": [
        {
          "internalType": "contract ISetToken",
          "name": "_setToken",
          "type": "address"
        },
        {
          "internalType": "contract IERC20",
          "name": "_borrowAsset",
          "type": "address"
        },
        {
          "internalType": "contract IERC20",
          "name": "_collateralAsset",
          "type": "address"
        },
        {
          "internalType": "uint256",
          "name": "_borrowQuantityUnits",
          "type": "uint256"
        },
        {
          "internalType": "uint256",
          "name": "_minReceiveQuantityUnits",
          "type": "uint256"
        },
        {
          "internalType": "string",
          "name": "_tradeAdapterName",
          "type": "string"
        },
        {
          "internalType": "bytes",
          "name": "_tradeData",
          "type": "bytes"
        }
      ],
      "name": "autoLever",
      "outputs": [],
      "stateMutability": "nonpayable",
      "type": "function"
    },
    {
      "inputs": [
        {
          "internalType": "contract ISetToken",
          "name": "",
          "type": "address"
        },
        {
          "internalType": "contract IERC20",
          "name": "",
          "type": "address"
        }
      ],
      "name": "borrowAssetEnabled",
      "outputs": [
        {
          "internalType": "bool",
          "name": "",
          "type": "bool"
        }
      ],
      "stateMutability": "view",
      "type": "function"
    },
    {
      "inputs": [
        {
          "internalType": "contract ISetToken",
          "name": "",
          "type": "address"
        },
        {
          "internalType": "contract IERC20",
          "name": "",
          "type": "address"
        }
      ],
      "name": "collateralAssetEnabled",
      "outputs": [
        {
          "internalType": "bool",
          "name": "",
          "type": "bool"
        }
      ],
      "stateMutability": "view",
      "type": "function"
    },
    {
      "inputs": [
        {
          "internalType": "contract ISetToken",
          "name": "_setToken",
          "type": "address"
        },
        {
          "internalType": "uint256",
          "name": "_setTokenQuantity",
          "type": "uint256"
        },
        {
          "internalType": "contract IERC20",
          "name": "_component",
          "type": "address"
        },
        {
          "internalType": "bool",
          "name": "_isEquity",
          "type": "bool"
        }
      ],
      "name": "componentIssueHook",
      "outputs": [],
      "stateMutability": "nonpayable",
      "type": "function"
    },
    {
      "inputs": [
        {
          "internalType": "contract ISetToken",
          "name": "_setToken",
          "type": "address"
        },
        {
          "internalType": "uint256",
          "name": "_setTokenQuantity",
          "type": "uint256"
        },
        {
          "internalType": "contract IERC20",
          "name": "_component",
          "type": "address"
        },
        {
          "internalType": "bool",
          "name": "_isEquity",
          "type": "bool"
        }
      ],
      "name": "componentRedeemHook",
      "outputs": [],
      "stateMutability": "nonpayable",
      "type": "function"
    },
    {
      "inputs": [],
      "name": "controller",
      "outputs": [
        {
          "internalType": "contract IController",
          "name": "",
          "type": "address"
        }
      ],
      "stateMutability": "view",
      "type": "function"
    },
    {
      "inputs": [
        {
          "internalType": "contract ISetToken",
          "name": "_setToken",
          "type": "address"
        },
        {
          "internalType": "contract IERC20",
          "name": "_collateralAsset",
          "type": "address"
        },
        {
          "internalType": "contract IERC20",
          "name": "_repayAsset",
          "type": "address"
        },
        {
          "internalType": "uint256",
          "name": "_redeemQuantityUnits",
          "type": "uint256"
        },
        {
          "internalType": "uint256",
          "name": "_minRepayQuantityUnits",
          "type": "uint256"
        },
        {
          "internalType": "string",
          "name": "_tradeAdapterName",
          "type": "string"
        },
        {
          "internalType": "bytes",
          "name": "_tradeData",
          "type": "bytes"
        }
      ],
      "name": "delever",
      "outputs": [],
      "stateMutability": "nonpayable",
      "type": "function"
    },
    {
      "inputs": [
        {
          "internalType": "contract ISetToken",
          "name": "_setToken",
          "type": "address"
        },
        {
          "internalType": "contract IERC20",
          "name": "_collateralAsset",
          "type": "address"
        },
        {
          "internalType": "contract IERC20",
          "name": "_repayAsset",
          "type": "address"
        },
        {
          "internalType": "uint256",
          "name": "_redeemQuantityUnits",
          "type": "uint256"
        },
        {
          "internalType": "string",
          "name": "_tradeAdapterName",
          "type": "string"
        },
        {
          "internalType": "bytes",
          "name": "_tradeData",
          "type": "bytes"
        }
      ],
      "name": "deleverToZeroBorrowBalance",
      "outputs": [
        {
          "internalType": "uint256",
          "name": "",
          "type": "uint256"
        }
      ],
      "stateMutability": "nonpayable",
      "type": "function"
    },
    {
      "inputs": [
        {
          "internalType": "contract ISetToken",
          "name": "_setToken",
          "type": "address"
        }
      ],
      "name": "getEnabledAssets",
      "outputs": [
        {
          "internalType": "address",
          "name": "",
          "type": "address"
        },
        {
          "internalType": "address",
          "name": "",
          "type": "address"
        }
      ],
      "stateMutability": "view",
      "type": "function"
    },
    {
      "inputs": [
        {
          "internalType": "contract ISetToken",
          "name": "_setToken",
          "type": "address"
        }
      ],
      "name": "getIssuingMultiplier",
      "outputs": [
        {
          "internalType": "uint256",
          "name": "_multiplier",
          "type": "uint256"
        },
        {
          "internalType": "uint256",
          "name": "_price",
          "type": "uint256"
        }
      ],
      "stateMutability": "view",
      "type": "function"
    },
    {
      "inputs": [
        {
          "internalType": "contract ISetToken",
          "name": "_setToken",
          "type": "address"
        },
        {
          "internalType": "contract IERC20",
          "name": "_collateralAssets",
          "type": "address"
        },
        {
          "internalType": "contract IERC20",
          "name": "_borrowAssets",
          "type": "address"
        }
      ],
      "name": "initialize",
      "outputs": [],
      "stateMutability": "nonpayable",
      "type": "function"
    },
    {
      "inputs": [],
      "name": "lendingPoolAddressesProvider",
      "outputs": [
        {
          "internalType": "contract ILendingPoolAddressesProvider",
          "name": "",
          "type": "address"
        }
      ],
      "stateMutability": "view",
      "type": "function"
    },
    {
      "inputs": [
        {
          "internalType": "contract ISetToken",
          "name": "_setToken",
          "type": "address"
        },
        {
          "internalType": "contract IERC20",
          "name": "_borrowAsset",
          "type": "address"
        },
        {
          "internalType": "contract IERC20",
          "name": "_collateralAsset",
          "type": "address"
        },
        {
          "internalType": "uint256",
          "name": "_borrowQuantityUnits",
          "type": "uint256"
        },
        {
          "internalType": "uint256",
          "name": "_minReceiveQuantityUnits",
          "type": "uint256"
        },
        {
          "internalType": "string",
          "name": "_tradeAdapterName",
          "type": "string"
        },
        {
          "internalType": "bytes",
          "name": "_tradeData",
          "type": "bytes"
        }
      ],
      "name": "lever",
      "outputs": [],
      "stateMutability": "nonpayable",
      "type": "function"
    },
    {
      "inputs": [
        {
          "internalType": "contract ISetToken",
          "name": "",
          "type": "address"
        }
      ],
      "name": "leveragingStateInfo",
      "outputs": [
        {
          "internalType": "contract ISetToken",
          "name": "setToken",
          "type": "address"
        },
        {
          "internalType": "contract IERC20",
          "name": "collateralAsset",
          "type": "address"
        },
        {
          "internalType": "contract IERC20",
          "name": "borrowAsset",
          "type": "address"
        },
        {
          "internalType": "uint256",
          "name": "accumulatedMultiplier",
          "type": "uint256"
        },
        {
          "internalType": "uint256",
          "name": "initPrice",
          "type": "uint256"
        },
        {
          "internalType": "uint256",
          "name": "initLeverage",
          "type": "uint256"
        }
      ],
      "stateMutability": "view",
      "type": "function"
    },
    {
      "inputs": [
        {
          "internalType": "contract ISetToken",
          "name": "_setToken",
          "type": "address"
        },
        {
          "internalType": "uint256",
          "name": "_setTokenQuantity",
          "type": "uint256"
        }
      ],
      "name": "moduleIssueHook",
      "outputs": [],
      "stateMutability": "nonpayable",
      "type": "function"
    },
    {
      "inputs": [
        {
          "internalType": "contract ISetToken",
          "name": "_setToken",
          "type": "address"
        },
        {
          "internalType": "uint256",
          "name": "_setTokenQuantity",
          "type": "uint256"
        }
      ],
      "name": "moduleRedeemHook",
      "outputs": [],
      "stateMutability": "nonpayable",
      "type": "function"
    },
    {
      "inputs": [],
      "name": "owner",
      "outputs": [
        {
          "internalType": "address",
          "name": "",
          "type": "address"
        }
      ],
      "stateMutability": "view",
      "type": "function"
    },
    {
      "inputs": [],
      "name": "protocolDataProvider",
      "outputs": [
        {
          "internalType": "contract IProtocolDataProvider",
          "name": "",
          "type": "address"
        }
      ],
      "stateMutability": "view",
      "type": "function"
    },
    {
      "inputs": [
        {
          "internalType": "contract ISetToken",
          "name": "_setToken",
          "type": "address"
        },
        {
          "internalType": "contract IDebtIssuanceModule",
          "name": "_debtIssuanceModule",
          "type": "address"
        }
      ],
      "name": "registerToModule",
      "outputs": [],
      "stateMutability": "nonpayable",
      "type": "function"
    },
    {
      "inputs": [
        {
          "internalType": "contract ISetToken",
          "name": "_setToken",
          "type": "address"
        },
        {
          "internalType": "contract IERC20",
          "name": "_borrowAssets",
          "type": "address"
        }
      ],
      "name": "removeBorrowAssets",
      "outputs": [],
      "stateMutability": "nonpayable",
      "type": "function"
    },
    {
      "inputs": [
        {
          "internalType": "contract ISetToken",
          "name": "_setToken",
          "type": "address"
        },
        {
          "internalType": "contract IERC20",
          "name": "_collateralAssets",
          "type": "address"
        }
      ],
      "name": "removeCollateralAssets",
      "outputs": [],
      "stateMutability": "nonpayable",
      "type": "function"
    },
    {
      "inputs": [],
      "name": "removeModule",
      "outputs": [],
      "stateMutability": "nonpayable",
      "type": "function"
    },
    {
      "inputs": [],
      "name": "renounceOwnership",
      "outputs": [],
      "stateMutability": "nonpayable",
      "type": "function"
    },
    {
      "inputs": [
        {
          "internalType": "contract ISetToken",
          "name": "_setToken",
          "type": "address"
        },
        {
          "internalType": "address",
          "name": "_caller",
          "type": "address"
        },
        {
          "internalType": "bool",
          "name": "_allowed",
          "type": "bool"
        }
      ],
      "name": "setCallerPermission",
      "outputs": [],
      "stateMutability": "nonpayable",
      "type": "function"
    },
    {
      "inputs": [
        {
          "internalType": "address",
          "name": "newOwner",
          "type": "address"
        }
      ],
      "name": "transferOwnership",
      "outputs": [],
      "stateMutability": "nonpayable",
      "type": "function"
    },
    {
      "inputs": [
        {
          "internalType": "contract IERC20",
          "name": "",
          "type": "address"
        }
      ],
      "name": "underlyingToReserveTokens",
      "outputs": [
        {
          "internalType": "contract IAToken",
          "name": "aToken",
          "type": "address"
        },
        {
          "internalType": "contract IVariableDebtToken",
          "name": "variableDebtToken",
          "type": "address"
        }
      ],
      "stateMutability": "view",
      "type": "function"
    },
    {
      "inputs": [
        {
          "internalType": "contract ISetToken",
          "name": "_setToken",
          "type": "address"
        },
        {
          "internalType": "bool",
          "name": "_status",
          "type": "bool"
        }
      ],
      "name": "updateAllowedSetToken",
      "outputs": [],
      "stateMutability": "nonpayable",
      "type": "function"
    },
    {
      "inputs": [
        {
          "internalType": "contract ISetToken",
          "name": "_setToken",
          "type": "address"
        },
        {
          "internalType": "bool",
          "name": "_allowed",
          "type": "bool"
        }
      ],
      "name": "updateAnyBotAllowed",
      "outputs": [],
      "stateMutability": "nonpayable",
      "type": "function"
    },
    {
      "inputs": [
        {
          "internalType": "bool",
          "name": "_anySetAllowed",
          "type": "bool"
        }
      ],
      "name": "updateAnySetAllowed",
      "outputs": [],
      "stateMutability": "nonpayable",
      "type": "function"
    }
  ],
  "bytecode": "0x60c06040523480156200001157600080fd5b506040516200647438038062006474833981016040819052620000349162000549565b600080546001600160a01b0319166001600160a01b038416178155600180556200005d6200033b565b600280546001600160a01b0319166001600160a01b038316908117909155604051919250906000907f8be0079c531659141344cd1fd0a4f28419497f9722a3daafe3b4186f6b6457e0908290a3506001600160601b0319606082901b1660a0526040516321f8a72160e01b81526000906001600160a01b038316906321f8a72190620000f290600160f81b906004016200059b565b60206040518083038186803b1580156200010b57600080fd5b505afa15801562000120573d6000803e3d6000fd5b505050506040513d601f19601f82011682018060405250810190620001469190620003e1565b9050806001600160a01b03166080816001600160a01b031660601b815250506060816001600160a01b031663b316ff896040518163ffffffff1660e01b815260040160006040518083038186803b158015620001a157600080fd5b505afa158015620001b6573d6000803e3d6000fd5b505050506040513d6000823e601f3d908101601f19168201604052620001e091908101906200045a565b905060005b81518110156200033057600080846001600160a01b031663d2493b6c8585815181106200020e57fe5b6020026020010151602001516040518263ffffffff1660e01b815260040162000238919062000587565b60606040518083038186803b1580156200025157600080fd5b505afa15801562000266573d6000803e3d6000fd5b505050506040513d601f19601f820116820180604052508101906200028c919062000407565b92505091506040518060400160405280836001600160a01b03168152602001826001600160a01b031681525060036000868681518110620002c957fe5b6020908102919091018101518101516001600160a01b039081168352828201939093526040909101600020835181549084166001600160a01b0319918216178255939091015160019182018054919093169316929092179055929092019150620001e59050565b5050505050620005e4565b3390565b80516200034c81620005cb565b92915050565b600082601f83011262000363578081fd5b81516001600160401b0381111562000379578182fd5b60206200038f601f8301601f19168201620005a4565b92508183528481838601011115620003a657600080fd5b60005b82811015620003c6578481018201518482018301528101620003a9565b82811115620003d85760008284860101525b50505092915050565b600060208284031215620003f3578081fd5b81516200040081620005cb565b9392505050565b6000806000606084860312156200041c578182fd5b83516200042981620005cb565b60208501519093506200043c81620005cb565b60408501519092506200044f81620005cb565b809150509250925092565b600060208083850312156200046d578182fd5b82516001600160401b038082111562000484578384fd5b81850186601f82011262000496578485fd5b8051925081831115620004a7578485fd5b620004b68485850201620005a4565b83815284810190828601875b868110156200053a5781518501604080601f19838f03011215620004e4578a8bfd5b620004ef81620005a4565b8a8301518981111562000500578c8dfd5b620005108f8d8387010162000352565b825250620005218e8385016200033f565b818c0152865250509287019290870190600101620004c2565b50909998505050505050505050565b600080604083850312156200055c578182fd5b82516200056981620005cb565b60208401519092506200057c81620005cb565b809150509250929050565b6001600160a01b0391909116815260200190565b90815260200190565b6040518181016001600160401b0381118282101715620005c357600080fd5b604052919050565b6001600160a01b0381168114620005e157600080fd5b50565b60805160601c60a05160601c615e2f6200064560003980610d85528061109552806113b4528061147d5280611e79528061280a52806130545250806107655280611d1a528061321c52806132ee52806135b952806136865250615e2f6000f3fe608060405234801561001057600080fd5b50600436106102115760003560e01c8063aea4aa7911610125578063d2e7e41e116100ad578063e4e9ce921161007c578063e4e9ce921461045d578063ee78244f14610470578063f2fde38b14610483578063f77c479114610496578063ffbad25c1461049e57610211565b8063d2e7e41e14610404578063d4fd27eb14610417578063e2ec895814610437578063e4b581831461044a57610211565b8063c0c53b8b116100f4578063c0c53b8b146103b8578063c137f4d7146103cb578063c153dd07146102a5578063c536416e146103de578063c690a74c146103f157610211565b8063aea4aa7914610374578063b1c0267814610395578063b1dd4d92146103a8578063bba00ba5146103b057610211565b80634fdd283c116101a8578063715018a611610177578063715018a614610336578063847ef08d1461033e5780638da5cb5b146103465780639e5dddb51461034e578063a2ccb59d1461036157610211565b80634fdd283c146102d85780635199e418146102eb5780635b136512146102fe5780636da0f3f41461031157610211565b806336a6b311116101e457806336a6b3111461027d5780633f843bce146102905780633fe6106b146102a5578063427eddb5146102b857610211565b806302577224146102165780630fb96b21146102405780632d3365921461025557806330ae8e821461026a575b600080fd5b610229610224366004614aea565b6104b1565b6040516102379291906151a2565b60405180910390f35b61025361024e366004614f37565b6104d7565b005b61025d6104dd565b6040516102379190615405565b610253610278366004614d53565b610500565b61025361028b366004614d53565b6105ea565b610298610763565b604051610237919061518e565b6102536102b3366004614f0c565b610787565b6102cb6102c6366004614d53565b61078b565b604051610237919061529a565b6102536102e6366004614e60565b6107ab565b6102536102f9366004614c71565b6107fa565b61025361030c366004614d53565b610876565b61032461031f366004614aea565b61097b565b604051610237969594939291906152e6565b6102536109be565b610253610a47565b610298610cb1565b61025361035c366004614d53565b610cc0565b61025361036f366004614e60565b610cd9565b610387610382366004614aea565b610d0c565b604051610237929190615d51565b6102296103a3366004614aea565b611060565b6102cb61108a565b610298611093565b6102536103c6366004614d80565b6110b7565b6102536103d9366004614f37565b611347565b6102536103ec366004614d53565b61166d565b6102536103ff366004614d1b565b611681565b610253610412366004614e60565b6117d3565b61042a610425366004614dbf565b611815565b6040516102379190615d48565b610253610445366004614d1b565b611aa1565b610253610458366004614cdc565b611b0e565b6102cb61046b366004614d53565b611b7f565b6102cb61047e366004614aea565b611b9f565b610253610491366004614aea565b611bb4565b610298611c75565b6102536104ac366004614e60565b611c84565b600360205260009081526040902080546001909101546001600160a01b03918216911682565b50505050565b604051806040016040528060078152602001660554e49535741560cc1b81525081565b8161050a81611cb2565b6001600160a01b03808416600090815260046020908152604080832093861683529290522054829060ff1661055a5760405162461bcd60e51b815260040161055190615743565b60405180910390fd5b61056684826000611d00565b6001600160a01b0380851660008181526004602090815260408083209486168352938152838220805460ff191690558282526006905282812080546001600160a01b031916905591517fee28d79174cecab3f427083ed85370882b2bf8c50d8fed586f407aa342247ec7906105dc90879061518e565b60405180910390a350505050565b816105f481611cb2565b6001600160a01b03808416600090815260056020908152604080832093861683529290522054829060ff1661063b5760405162461bcd60e51b815260040161055190615773565b6001600160a01b03808216600090815260036020526040908190206001015490516370a0823160e01b81529116906370a082319061067d90879060040161518e565b60206040518083038186803b15801561069557600080fd5b505afa1580156106a9573d6000803e3d6000fd5b505050506040513d601f19601f820116820180604052508101906106cd9190614fa8565b156106ea5760405162461bcd60e51b815260040161055190615a8f565b6001600160a01b0380851660008181526005602090815260408083209486168352938152838220805460ff191690558282526006905282812060010180546001600160a01b031916905591517f56af7b58454fd0e9dd2ce42ece2ad4e39471b9a8d45b32ee37464d675cf526ff906105dc90879061518e565b7f000000000000000000000000000000000000000000000000000000000000000081565b5050565b600460209081526000928352604080842090915290825290205460ff1681565b600260015414156107ce5760405162461bcd60e51b815260040161055190615c6a565b6002600155866107dd81611cb2565b6107ec88888888888888611f55565b505060018055505050505050565b610802612051565b6001600160a01b0316610813610cb1565b6001600160a01b0316146108395760405162461bcd60e51b8152600401610551906159ae565b6008805460ff19168215159081179091556040517f563e1633136cdd43b8793897cb53ba2a9e31c18b3ae0b6827fbbb03b9902e6c690600090a250565b8161088081611cb2565b6040516335fc6c9f60e21b81526001600160a01b0384169063d7f1b27c906108ac90859060040161518e565b60206040518083038186803b1580156108c457600080fd5b505afa1580156108d8573d6000803e3d6000fd5b505050506040513d601f19601f820116820180604052508101906108fc9190614c8d565b6109185760405162461bcd60e51b81526004016105519061584e565b6040516306cd8db760e51b81526001600160a01b0383169063d9b1b6e09061094490869060040161518e565b600060405180830381600087803b15801561095e57600080fd5b505af1158015610972573d6000803e3d6000fd5b50505050505050565b6009602052600090815260409020805460018201546002830154600384015460048501546005909501546001600160a01b03948516959385169490921692909186565b6109c6612051565b6001600160a01b03166109d7610cb1565b6001600160a01b0316146109fd5760405162461bcd60e51b8152600401610551906159ae565b6002546040516000916001600160a01b0316907f8be0079c531659141344cd1fd0a4f28419497f9722a3daafe3b4186f6b6457e0908390a3600280546001600160a01b0319169055565b33610a5181611cd8565b3360008181526006602090815260408083206001908101546001600160a01b03908116808652600390945293829020015490516370a0823160e01b8152919283929116906370a0823190610aa990869060040161518e565b60206040518083038186803b158015610ac157600080fd5b505afa158015610ad5573d6000803e3d6000fd5b505050506040513d601f19601f82011682018060405250810190610af99190614fa8565b15610b165760405162461bcd60e51b815260040161055190615a8f565b6001600160a01b03808416600081815260056020908152604080832086861684528252808320805460ff191690559282526006905290812054909116908190610b629086908390611d00565b6001600160a01b0380861660008181526004602081815260408084209587168452948152848320805460ff191690558383526006905283822080546001600160a01b0319908116825560019190910180549091169055835163b2494df360e01b8152935160609463b2494df39381840193909291829003018186803b158015610bea57600080fd5b505afa158015610bfe573d6000803e3d6000fd5b505050506040513d6000823e601f3d908101601f19168201604052610c269190810190614bc6565b905060005b8151811015610ca757818181518110610c4057fe5b60200260200101516001600160a01b031663e0799620886040518263ffffffff1660e01b8152600401610c73919061518e565b600060405180830381600087803b158015610c8d57600080fd5b505af1925050508015610c9e575060015b50600101610c2b565b5050505050505050565b6002546001600160a01b031690565b81610cca81611cb2565b610cd48383612055565b505050565b60026001541415610cfc5760405162461bcd60e51b815260040161055190615c6a565b6002600155866107dd81336120f1565b6001600160a01b038082166000908152600660205260408120805460019091015491928392918116911680610d535760405162461bcd60e51b815260040161055190615606565b6001600160a01b038086166000908152600960209081526040808320600501548151631f94a27560e31b8152915190947f0000000000000000000000000000000000000000000000000000000000000000169263fca513a89260048082019391829003018186803b158015610dc757600080fd5b505afa158015610ddb573d6000803e3d6000fd5b505050506040513d601f19601f82011682018060405250810190610dff9190614b06565b9050610f08816001600160a01b031663b3596f07856040518263ffffffff1660e01b8152600401610e30919061518e565b60206040518083038186803b158015610e4857600080fd5b505afa158015610e5c573d6000803e3d6000fd5b505050506040513d601f19601f82011682018060405250810190610e809190614fa8565b60405163b3596f0760e01b81526001600160a01b0384169063b3596f0790610eac90899060040161518e565b60206040518083038186803b158015610ec457600080fd5b505afa158015610ed8573d6000803e3d6000fd5b505050506040513d601f19601f82011682018060405250810190610efc9190614fa8565b9063ffffffff61217f16565b945081670de0b6b3a76400001415610f2f5750670de0b6b3a7640000945061105b92505050565b6001600160a01b0387166000908152600960205260408120600401548190610f5d908863ffffffff61217f16565b9050670de0b6b3a76400008111610fcc576001600160a01b038916600090815260096020526040902060040154610fc590610f9e908963ffffffff6121b216565b610fb986670de0b6b3a764000085900363ffffffff61220516565b9063ffffffff61224416565b9150611025565b611022610fea85670de0b6b3a763ffff19840163ffffffff61220516565b6001600160a01b038b16600090815260096020526040902060040154611016908a63ffffffff6121b216565b9063ffffffff61226916565b91505b6001600160a01b03891660009081526009602052604090206003015461105290839063ffffffff61220516565b97505050505050505b915091565b6001600160a01b039081166000908152600660205260409020805460019091015490821692911690565b60085460ff1681565b7f000000000000000000000000000000000000000000000000000000000000000081565b82336110c38282612291565b846110cd816122b7565b60085460ff1661110f576001600160a01b03861660009081526007602052604090205460ff1661110f5760405162461bcd60e51b8152600401610551906159e3565b856001600160a01b0316630ffe0f1e6040518163ffffffff1660e01b8152600401600060405180830381600087803b15801561114a57600080fd5b505af115801561115e573d6000803e3d6000fd5b50505050856001600160a01b031663d7f1b27c6111a76040518060400160405280601581526020017444656661756c7449737375616e63654d6f64756c6560581b815250612378565b6040518263ffffffff1660e01b81526004016111c3919061518e565b60206040518083038186803b1580156111db57600080fd5b505afa1580156111ef573d6000803e3d6000fd5b505050506040513d601f19601f820116820180604052508101906112139190614c8d565b61122f5760405162461bcd60e51b81526004016105519061584e565b6060866001600160a01b031663b2494df36040518163ffffffff1660e01b815260040160006040518083038186803b15801561126a57600080fd5b505afa15801561127e573d6000803e3d6000fd5b505050506040513d6000823e601f3d908101601f191682016040526112a69190810190614bc6565b905060005b8151811015611327578181815181106112c057fe5b60200260200101516001600160a01b031663d9b1b6e0896040518263ffffffff1660e01b81526004016112f3919061518e565b600060405180830381600087803b15801561130d57600080fd5b505af192505050801561131e575060015b506001016112ab565b506113328787612396565b61133c8786612055565b61097287878761242f565b83611351816124f3565b81611666576001600160a01b03808616600090815260066020526040812080546001909101549083169216905b601d8160ff161015610ca7576000808073__$66f0e02224a9512332ee418af43d2e46f5$__639250d5316001600160a01b038d167f00000000000000000000000000000000000000000000000000000000000000006113db612635565b898f6040518663ffffffff1660e01b81526004016113fd95949392919061531f565b60606040518083038186803b15801561141557600080fd5b505af4158015611429573d6000803e3d6000fd5b505050506040513d601f19601f8201168201806040525081019061144d9190614fc0565b92509250925060008b6001600160a01b031673__$66f0e02224a9512332ee418af43d2e46f5$__63646f51bd90917f00000000000000000000000000000000000000000000000000000000000000008e6040518463ffffffff1660e01b81526004016114bb93929190615236565b60206040518083038186803b1580156114d357600080fd5b505af41580156114e7573d6000803e3d6000fd5b505050506040513d601f19601f8201168201806040525081019061150b9190614fa8565b9050828111158061151a575081155b156115285750505050610ca7565b6000611532612635565b6040516396a48b2160e01b815273__$66f0e02224a9512332ee418af43d2e46f5$__916396a48b2191611577916001600160a01b03169089908d908d906004016153da565b60206040518083038186803b15801561158f57600080fd5b505af41580156115a3573d6000803e3d6000fd5b505050506040513d601f19601f820116820180604052508101906115c79190614fa8565b905061161d8d8989886115e886670d2f13f7789f000063ffffffff6126d416565b604051806040016040528060078152602001660554e49535741560cc1b81525060405180602001604052806000815250611f55565b8560ff16601c1415806116305750838211155b80611639575082155b6116555760405162461bcd60e51b81526004016105519061590c565b50506001909301925061137e915050565b5050505050565b8161167781611cb2565b610cd48383612396565b611689612051565b6001600160a01b031661169a610cb1565b6001600160a01b0316146116c05760405162461bcd60e51b8152600401610551906159ae565b600054604051631d3af8fb60e21b81526001600160a01b03909116906374ebe3ec906116f090859060040161518e565b60206040518083038186803b15801561170857600080fd5b505afa15801561171c573d6000803e3d6000fd5b505050506040513d601f19601f820116820180604052508101906117409190614c8d565b8061176357506001600160a01b03821660009081526007602052604090205460ff165b61177f5760405162461bcd60e51b815260040161055190615984565b6001600160a01b038216600081815260076020526040808220805460ff191685151590811790915590519092917f2035981b48691b10f6ac65174e570b4d0a8a889ae01bef3e5e7759ff9444f0c491a35050565b600260015414156117f65760405162461bcd60e51b815260040161055190615c6a565b60026001558661180681336120f1565b6107ec888888888888886126f2565b60006002600154141561183a5760405162461bcd60e51b815260040161055190615c6a565b60026001558661184981611cb2565b6000886001600160a01b03166318160ddd6040518163ffffffff1660e01b815260040160206040518083038186803b15801561188457600080fd5b505afa158015611898573d6000803e3d6000fd5b505050506040513d601f19601f820116820180604052508101906118bc9190614fa8565b905060006118d0878363ffffffff6126d416565b6001600160a01b03808c166000908152600560209081526040808320938d168352929052205490915060ff166119185760405162461bcd60e51b815260040161055190615773565b6001600160a01b038089166000908152600360205260408082206001015490516370a0823160e01b8152919216906370a082319061195a908e9060040161518e565b60206040518083038186803b15801561197257600080fd5b505afa158015611986573d6000803e3d6000fd5b505050506040513d601f19601f820116820180604052508101906119aa9190614fa8565b9050600081116119cc5760405162461bcd60e51b815260040161055190615c3a565b6119d46149a2565b6119e58c8c8c86868d60008b6127dd565b90506119ff816000015182602001518d846080015161299c565b611a0b818c8c8a612a32565b50611a20816000015182602001518c85612cb5565b611a2a818b612d19565b896001600160a01b03168b6001600160a01b03168d6001600160a01b03167f7cda30123ddfc96659344700585861a8670352b9cc86d1b1054d10083b1dcdd484604001518560800151876000604051611a8694939291906152a5565b60405180910390a450600180559a9950505050505050505050565b81611aab81611cb2565b6001600160a01b0383166000908152600a602052604090819020805460ff1916841515179055517f944689bc74851f0755b84454704dd0779b0da6102da516154e970690b0d82bca90611b0190859085906152cb565b60405180910390a1505050565b82611b1881611cb2565b6001600160a01b038481166000818152600b6020908152604080832094881680845294909152808220805460ff19168715159081179091559051909392917f6dd414083f8b78a05f9c9713ad63b7e568631472c8382d50ae3e99b78630875e91a450505050565b600560209081526000928352604080842090915290825290205460ff1681565b60076020526000908152604090205460ff1681565b611bbc612051565b6001600160a01b0316611bcd610cb1565b6001600160a01b031614611bf35760405162461bcd60e51b8152600401610551906159ae565b6001600160a01b038116611c195760405162461bcd60e51b815260040161055190615490565b6002546040516001600160a01b038084169216907f8be0079c531659141344cd1fd0a4f28419497f9722a3daafe3b4186f6b6457e090600090a3600280546001600160a01b0319166001600160a01b0392909216919091179055565b6000546001600160a01b031681565b60026001541415611ca75760405162461bcd60e51b815260040161055190615c6a565b600260015586611806815b611cbc8133612ddf565b611cd85760405162461bcd60e51b815260040161055190615bcc565b611ce181612e6d565b611cfd5760405162461bcd60e51b815260040161055190615448565b50565b6040516328dd2d0160e01b81526000906001600160a01b037f000000000000000000000000000000000000000000000000000000000000000016906328dd2d0190611d5190869088906004016151a2565b6101206040518083038186803b158015611d6a57600080fd5b505afa158015611d7e573d6000803e3d6000fd5b505050506040513d601f19601f82011682018060405250810190611da291906150dc565b9850505050505050505081151581151514158015611e4c57506001600160a01b038084166000908152600360205260408082205490516370a0823160e01b8152919216906370a0823190611dfa90889060040161518e565b60206040518083038186803b158015611e1257600080fd5b505afa158015611e26573d6000803e3d6000fd5b505050506040513d601f19601f82011682018060405250810190611e4a9190614fa8565b115b156104d757836001600160a01b031673__$eb0a78a9fe796622aa6e55d316b71a306b$__6378c8823990917f00000000000000000000000000000000000000000000000000000000000000006001600160a01b0316630261bf8b6040518163ffffffff1660e01b815260040160206040518083038186803b158015611ed057600080fd5b505afa158015611ee4573d6000803e3d6000fd5b505050506040513d601f19601f82011682018060405250810190611f089190614b06565b86866040518563ffffffff1660e01b8152600401611f299493929190615352565b60006040518083038186803b158015611f4157600080fd5b505af4158015610ca7573d6000803e3d6000fd5b611f5d6149a2565b611f6d8888888888886000612f71565b9050611f878160000151826020015189846080015161299c565b6000611f9582898986612a32565b90506000611fa48a898461301c565b90506000611fb8838363ffffffff61226916565b9050611fce846000015185602001518b84612cb5565b611fd8848a612d19565b611fe18b61303f565b886001600160a01b03168a6001600160a01b03168c6001600160a01b03167f7cda30123ddfc96659344700585861a8670352b9cc86d1b1054d10083b1dcdd487604001518860800151868860405161203c94939291906152a5565b60405180910390a45050505050505050505050565b3390565b8061206083826131bc565b6001600160a01b038084166000818152600560209081526040808320948616808452948252808320805460ff19166001908117909155848452600690925291829020810180546001600160a01b031916909417909355517f56af7b58454fd0e9dd2ce42ece2ad4e39471b9a8d45b32ee37464d675cf526ff906120e490869061518e565b60405180910390a3505050565b6001600160a01b0382166000908152600a602052604090205460ff16801561213e57506001600160a01b038083166000908152600b602090815260408083209385168352929052205460ff165b61215a5760405162461bcd60e51b8152600401610551906158d5565b61216382612e6d565b6107875760405162461bcd60e51b815260040161055190615448565b60006121a98261219d85670de0b6b3a764000063ffffffff6133f616565b9063ffffffff61343016565b90505b92915050565b6000816121d15760405162461bcd60e51b815260040161055190615d1e565b600083116121e05760006121a9565b6121a96001610fb98461219d8361101689670de0b6b3a764000063ffffffff6133f616565b6000821580612212575081155b1561221f575060006121ac565b6121a96001610fb9670de0b6b3a764000061219d83611016898963ffffffff6133f616565b6000828201838110156121a95760405162461bcd60e51b8152600401610551906154d6565b60008282111561228b5760405162461bcd60e51b81526004016105519061567b565b50900390565b61229b8282612ddf565b6107875760405162461bcd60e51b815260040161055190615bcc565b600054604051631d3af8fb60e21b81526001600160a01b03909116906374ebe3ec906122e790849060040161518e565b60206040518083038186803b1580156122ff57600080fd5b505afa158015612313573d6000803e3d6000fd5b505050506040513d601f19601f820116820180604052508101906123379190614c8d565b6123535760405162461bcd60e51b815260040161055190615b89565b61235c81613462565b611cfd5760405162461bcd60e51b815260040161055190615571565b60008061238483613491565b905061238f8161349c565b9392505050565b806123a18382613559565b6123ad83826001611d00565b6001600160a01b038084166000818152600460209081526040808320948616808452948252808320805460ff1916600190811790915584845260069092529182902080546001600160a01b031916909417909355517fee28d79174cecab3f427083ed85370882b2bf8c50d8fed586f407aa342247ec7906120e490869061518e565b6124376149ee565b6001600160a01b0380851680835284821660208085018281528685166040808801918252670de0b6b3a76400006060890181815260a08a018281526000988952600987528389208b518154908c166001600160a01b03199182161782559651600182018054918d169189169190911790559451600286018054918c1691909716179095555160038085019190915560808a0151600485015593516005909301929092559385529152912054909116906116669086908390613786565b6002604051631ade272960e11b81526001600160a01b038316906335bc4e529061252190339060040161518e565b60206040518083038186803b15801561253957600080fd5b505afa15801561254d573d6000803e3d6000fd5b505050506040513d601f19601f820116820180604052508101906125719190614f89565b600281111561257c57fe5b146125995760405162461bcd60e51b815260040161055190615817565b6000546040516342f6e38960e01b81526001600160a01b03909116906342f6e389906125c990339060040161518e565b60206040518083038186803b1580156125e157600080fd5b505afa1580156125f5573d6000803e3d6000fd5b505050506040513d601f19601f820116820180604052508101906126199190614c8d565b611cfd5760405162461bcd60e51b815260040161055190615b45565b600061265f604051806040016040528060078152602001660554e49535741560cc1b815250612378565b6001600160a01b031663334fc2896040518163ffffffff1660e01b815260040160206040518083038186803b15801561269757600080fd5b505afa1580156126ab573d6000803e3d6000fd5b505050506040513d601f19601f820116820180604052508101906126cf9190614b06565b905090565b60006121a9670de0b6b3a764000061219d858563ffffffff6133f616565b6126fa6149a2565b61270a8888888888886001612f71565b9050612728816000015182602001518360e0015184608001516137bc565b600061273682898986612a32565b905060006127458a898461301c565b90506000612759838363ffffffff61226916565b905061276f846000015185602001518b84613804565b612779848b613865565b6127828b61303f565b886001600160a01b03168a6001600160a01b03168c6001600160a01b03167f359f8b62a966cfd521a3815681266407201b20a7c334925faa49e7d9d5dd57ab87604001518860800151868860405161203c94939291906152a5565b6127e56149a2565b6127ed6149a2565b6040518061012001604052808b6001600160a01b031681526020017f00000000000000000000000000000000000000000000000000000000000000006001600160a01b0316630261bf8b6040518163ffffffff1660e01b815260040160206040518083038186803b15801561286157600080fd5b505afa158015612875573d6000803e3d6000fd5b505050506040513d601f19601f820116820180604052508101906128999190614b06565b6001600160a01b031681526020016128b087612378565b6001600160a01b03168152602001848152602001888152602001878152602001856128db578a6128dd565b895b6001600160a01b03168152602001856128f657896128f8565b8a5b6001600160a01b03168152602001896001600160a01b03166370a082318d6040518263ffffffff1660e01b8152600401612932919061518e565b60206040518083038186803b15801561294a57600080fd5b505afa15801561295e573d6000803e3d6000fd5b505050506040513d601f19601f820116820180604052508101906129829190614fa8565b9052905061298f816138c9565b9998505050505050505050565b60405163ab36d4d560e01b815273__$eb0a78a9fe796622aa6e55d316b71a306b$__9063ab36d4d5906129e2906001600160a01b0388169087908790879060040161537c565b60206040518083038186803b1580156129fa57600080fd5b505af4158015612a0e573d6000803e3d6000fd5b505050506040513d601f19601f820116820180604052508101906116669190614fa8565b60008085600001519050600086608001519050612ad68688604001516001600160a01b031663334fc2896040518163ffffffff1660e01b815260040160206040518083038186803b158015612a8657600080fd5b505afa158015612a9a573d6000803e3d6000fd5b505050506040513d601f19601f82011682018060405250810190612abe9190614b06565b6001600160a01b03851691908463ffffffff6139bf16565b600080606089604001516001600160a01b031663e171fcab8a8a88888f60a001518d6040518763ffffffff1660e01b8152600401612b19969594939291906151bc565b60006040518083038186803b158015612b3157600080fd5b505afa158015612b45573d6000803e3d6000fd5b505050506040513d6000823e601f3d908101601f19168201604052612b6d9190810190614b6e565b925092509250846001600160a01b0316638f6f03328484846040518463ffffffff1660e01b8152600401612ba393929190615273565b600060405180830381600087803b158015612bbd57600080fd5b505af1158015612bd1573d6000803e3d6000fd5b505050506040513d6000823e601f3d908101601f19168201604052612bf99190810190614ca9565b506000612c818b61010001518a6001600160a01b03166370a08231896040518263ffffffff1660e01b8152600401612c31919061518e565b60206040518083038186803b158015612c4957600080fd5b505afa158015612c5d573d6000803e3d6000fd5b505050506040513d601f19601f820116820180604052508101906110169190614fa8565b90508a60a00151811015612ca75760405162461bcd60e51b8152600401610551906156e1565b9a9950505050505050505050565b612cd06001600160a01b03851683858463ffffffff6139bf16565b604051630cca200b60e31b815273__$eb0a78a9fe796622aa6e55d316b71a306b$__906366510058906129e2906001600160a01b038816908790879087906002906004016153a6565b81516040516370a0823160e01b81526000916001600160a01b038416916370a0823191612d489160040161518e565b60206040518083038186803b158015612d6057600080fd5b505afa158015612d74573d6000803e3d6000fd5b505050506040513d601f19601f82011682018060405250810190612d989190614fa8565b90508261010001518114612dd55760608301516101008401518451612dd1926001600160a01b039091169185919063ffffffff613a8616565b5050505b610cd48383613865565b6000816001600160a01b0316836001600160a01b031663481c6a756040518163ffffffff1660e01b815260040160206040518083038186803b158015612e2457600080fd5b505afa158015612e38573d6000803e3d6000fd5b505050506040513d601f19601f82011682018060405250810190612e5c9190614b06565b6001600160a01b0316149392505050565b60008054604051631d3af8fb60e21b81526001600160a01b03909116906374ebe3ec90612e9e90859060040161518e565b60206040518083038186803b158015612eb657600080fd5b505afa158015612eca573d6000803e3d6000fd5b505050506040513d601f19601f82011682018060405250810190612eee9190614c8d565b80156121ac57506040516335fc6c9f60e21b81526001600160a01b0383169063d7f1b27c90612f2190309060040161518e565b60206040518083038186803b158015612f3957600080fd5b505afa158015612f4d573d6000803e3d6000fd5b505050506040513d601f19601f820116820180604052508101906121ac9190614c8d565b612f796149a2565b6000886001600160a01b03166318160ddd6040518163ffffffff1660e01b815260040160206040518083038186803b158015612fb457600080fd5b505afa158015612fc8573d6000803e3d6000fd5b505050506040513d601f19601f82011682018060405250810190612fec9190614fa8565b905061298f8989896130048a8663ffffffff6126d416565b6130148a8763ffffffff6126d416565b8989886127dd565b60008061302a600084613bcc565b9050613037858583613c61565b949350505050565b60008061304b83610d0c565b915091506000807f00000000000000000000000000000000000000000000000000000000000000006001600160a01b0316630261bf8b6040518163ffffffff1660e01b815260040160206040518083038186803b1580156130ab57600080fd5b505afa1580156130bf573d6000803e3d6000fd5b505050506040513d601f19601f820116820180604052508101906130e39190614b06565b6001600160a01b031663bf92857c866040518263ffffffff1660e01b815260040161310e919061518e565b60c06040518083038186803b15801561312657600080fd5b505afa15801561313a573d6000803e3d6000fd5b505050506040513d601f19601f8201168201806040525081019061315e9190615093565b5050505091509150600061318b61317e838561226990919063ffffffff16565b849063ffffffff61217f16565b6001600160a01b03909616600090815260096020526040902060058101969096555050506004830155600390910155565b6001600160a01b0380831660009081526005602090815260408083209385168352929052205460ff16156132025760405162461bcd60e51b815260040161055190615ca1565b6040516334924edb60e21b81526000906001600160a01b037f0000000000000000000000000000000000000000000000000000000000000000169063d2493b6c9061325190859060040161518e565b60606040518083038186803b15801561326957600080fd5b505afa15801561327d573d6000803e3d6000fd5b505050506040513d601f19601f820116820180604052508101906132a19190614b22565b6001600160a01b0385811660009081526003602052604090206001015491945084811691161491506132e790505760405162461bcd60e51b8152600401610551906157d4565b60008060007f00000000000000000000000000000000000000000000000000000000000000006001600160a01b0316633e150141866040518263ffffffff1660e01b8152600401613338919061518e565b6101406040518083038186803b15801561335157600080fd5b505afa158015613365573d6000803e3d6000fd5b505050506040513d601f19601f820116820180604052508101906133899190614fed565b99509950509850505050505050816133b35760405162461bcd60e51b81526004016105519061564d565b80156133d15760405162461bcd60e51b81526004016105519061550d565b826133ee5760405162461bcd60e51b8152600401610551906155a8565b505050505050565b600082613405575060006121ac565b8282028284828161341257fe5b04146121a95760405162461bcd60e51b815260040161055190615943565b60008082116134515760405162461bcd60e51b81526004016105519061570c565b81838161345a57fe5b049392505050565b6040516353bae5f760e01b81526000906001600160a01b038316906353bae5f790612f2190309060040161518e565b805160209091012090565b6000805481906134b4906001600160a01b0316613d08565b6001600160a01b031663e6d642c530856040518363ffffffff1660e01b81526004016134e192919061525a565b60206040518083038186803b1580156134f957600080fd5b505afa15801561350d573d6000803e3d6000fd5b505050506040513d601f19601f820116820180604052508101906135319190614b06565b90506001600160a01b0381166121ac5760405162461bcd60e51b8152600401610551906156b2565b6001600160a01b0380831660009081526004602090815260408083209385168352929052205460ff161561359f5760405162461bcd60e51b81526004016105519061553a565b6040516334924edb60e21b81526000906001600160a01b037f0000000000000000000000000000000000000000000000000000000000000000169063d2493b6c906135ee90859060040161518e565b60606040518083038186803b15801561360657600080fd5b505afa15801561361a573d6000803e3d6000fd5b505050506040513d601f19601f8201168201806040525081019061363e9190614b22565b50506001600160a01b0383811660009081526003602052604090205491925082811691161461367f5760405162461bcd60e51b815260040161055190615418565b60008060007f00000000000000000000000000000000000000000000000000000000000000006001600160a01b0316633e150141866040518263ffffffff1660e01b81526004016136d0919061518e565b6101406040518083038186803b1580156136e957600080fd5b505afa1580156136fd573d6000803e3d6000fd5b505050506040513d601f19601f820116820180604052508101906137219190614fed565b995099505050975050505050508161374b5760405162461bcd60e51b81526004016105519061564d565b80156137695760405162461bcd60e51b81526004016105519061550d565b826133ee5760405162461bcd60e51b815260040161055190615c03565b610cd4823061379484613d87565b6040805160208101909152600081526001600160a01b0388169392919063ffffffff613db016565b60405162b0489960e41b815273__$eb0a78a9fe796622aa6e55d316b71a306b$__90630b04899090611f29906001600160a01b038816908790879087906002906004016153a6565b61381f6001600160a01b03851683858463ffffffff6139bf16565b604051630460b91f60e41b815273__$eb0a78a9fe796622aa6e55d316b71a306b$__9063460b91f090611f29906001600160a01b0388169087908790879060040161537c565b60c08201516001600160a01b039081166000908152600360205260409020548351606085015191909216916138a89183906138a39083908390614368565b613786565b610cd48360000151836138c48660000151868860600151614399565b614463565b80516001600160a01b03908116600090815260046020908152604080832060c08601519094168352929052205460ff166139155760405162461bcd60e51b815260040161055190615743565b80516001600160a01b03908116600090815260056020908152604080832060e08601519094168352929052205460ff166139615760405162461bcd60e51b815260040161055190615773565b8060e001516001600160a01b03168160c001516001600160a01b0316141561399b5760405162461bcd60e51b815260040161055190615cd1565b6000816080015111611cfd5760405162461bcd60e51b8152600401610551906155df565b606082826040516024016139d492919061525a565b60408051601f198184030181529181526020820180516001600160e01b031663095ea7b360e01b179052516347b7819960e11b81529091506001600160a01b03861690638f6f033290613a309087906000908690600401615273565b600060405180830381600087803b158015613a4a57600080fd5b505af1158015613a5e573d6000803e3d6000fd5b505050506040513d6000823e601f3d908101601f191682016040526133ee9190810190614ca9565b600080600080866001600160a01b03166370a08231896040518263ffffffff1660e01b8152600401613ab8919061518e565b60206040518083038186803b158015613ad057600080fd5b505afa158015613ae4573d6000803e3d6000fd5b505050506040513d601f19601f82011682018060405250810190613b089190614fa8565b90506000613b90896001600160a01b03166366cb8d2f8a6040518263ffffffff1660e01b8152600401613b3b919061518e565b60206040518083038186803b158015613b5357600080fd5b505afa158015613b67573d6000803e3d6000fd5b505050506040513d601f19601f82011682018060405250810190613b8b9190614fa8565b614492565b905060008215613bad57613ba6888885856144b4565b9050613bb1565b5060005b613bbc8a8a836144f7565b9199909850909650945050505050565b6000805460405163792aa04f60e01b815282916001600160a01b03169063792aa04f90613bff903090889060040161525a565b60206040518083038186803b158015613c1757600080fd5b505afa158015613c2b573d6000803e3d6000fd5b505050506040513d601f19601f82011682018060405250810190613c4f9190614fa8565b9050613037838263ffffffff6126d416565b8015610cd457610cd4826000809054906101000a90046001600160a01b03166001600160a01b031663469048406040518163ffffffff1660e01b815260040160206040518083038186803b158015613cb857600080fd5b505afa158015613ccc573d6000803e3d6000fd5b505050506040513d601f19601f82011682018060405250810190613cf09190614b06565b6001600160a01b03861691908463ffffffff61466b16565b6040516373b2e76b60e11b81526000906001600160a01b0383169063e765ced690613d37908490600401615d48565b60206040518083038186803b158015613d4f57600080fd5b505afa158015613d63573d6000803e3d6000fd5b505050506040513d601f19601f820116820180604052508101906121ac9190614b06565b6000600160ff1b8210613dac5760405162461bcd60e51b815260040161055190615afd565b5090565b81156140a55760405163df5e9b2960e01b81526001600160a01b0386169063df5e9b2990613de290879060040161518e565b60206040518083038186803b158015613dfa57600080fd5b505afa158015613e0e573d6000803e3d6000fd5b505050506040513d601f19601f82011682018060405250810190613e329190614c8d565b613ef9576040516304e3532760e41b81526001600160a01b03861690634e35327090613e6290879060040161518e565b600060405180830381600087803b158015613e7c57600080fd5b505af1158015613e90573d6000803e3d6000fd5b505060405163ea0ee55960e01b81526001600160a01b038816925063ea0ee5599150613ec290879087906004016151a2565b600060405180830381600087803b158015613edc57600080fd5b505af1158015613ef0573d6000803e3d6000fd5b50505050613fdc565b604051637d96659360e01b81526001600160a01b03861690637d96659390613f2790879087906004016151a2565b60206040518083038186803b158015613f3f57600080fd5b505afa158015613f53573d6000803e3d6000fd5b505050506040513d601f19601f82011682018060405250810190613f779190614c8d565b613fdc5760405163ea0ee55960e01b81526001600160a01b0386169063ea0ee55990613fa990879087906004016151a2565b600060405180830381600087803b158015613fc357600080fd5b505af1158015613fd7573d6000803e3d6000fd5b505050505b6040516363a90fc160e01b81526001600160a01b038616906363a90fc19061400c90879087908790600401615236565b600060405180830381600087803b15801561402657600080fd5b505af115801561403a573d6000803e3d6000fd5b50506040516326898fe160e01b81526001600160a01b03881692506326898fe1915061406e9087908790869060040161520a565b600060405180830381600087803b15801561408857600080fd5b505af115801561409c573d6000803e3d6000fd5b50505050611666565b8051156140c45760405162461bcd60e51b815260040161055190615ac6565b6040516308bafae960e21b81526001600160a01b038616906322ebeba4906140f290879087906004016151a2565b60206040518083038186803b15801561410a57600080fd5b505afa15801561411e573d6000803e3d6000fd5b505050506040513d601f19601f820116820180604052508101906141429190614fa8565b156116665760405163a7bdad0360e01b81526060906001600160a01b0387169063a7bdad039061417690889060040161518e565b60006040518083038186803b15801561418e57600080fd5b505afa1580156141a2573d6000803e3d6000fd5b505050506040513d6000823e601f3d908101601f191682016040526141ca9190810190614bc6565b6040516366cb8d2f60e01b81529091506001600160a01b038716906366cb8d2f906141f990889060040161518e565b60206040518083038186803b15801561421157600080fd5b505afa158015614225573d6000803e3d6000fd5b505050506040513d601f19601f820116820180604052508101906142499190614fa8565b158015614257575080516001145b1561430057836001600160a01b03168160008151811061427357fe5b60200260200101516001600160a01b0316146142a15760405162461bcd60e51b815260040161055190615885565b604051636f86c89760e01b81526001600160a01b03871690636f86c897906142cd90889060040161518e565b600060405180830381600087803b1580156142e757600080fd5b505af11580156142fb573d6000803e3d6000fd5b505050505b60405163acf3f07760e01b81526001600160a01b0387169063acf3f0779061432e90889088906004016151a2565b600060405180830381600087803b15801561434857600080fd5b505af115801561435c573d6000803e3d6000fd5b50505050505050505050565b6000613037846001600160a01b03166366cb8d2f856040518263ffffffff1660e01b8152600401613b3b919061518e565b6001600160a01b038083166000908152600360205260408082206001015490516370a0823160e01b8152919283929116906370a08231906143de90889060040161518e565b60206040518083038186803b1580156143f657600080fd5b505afa15801561440a573d6000803e3d6000fd5b505050506040513d601f19601f8201168201806040525081019061442e9190614fa8565b905061445a60001961444e614449848763ffffffff6121b216565b613d87565b9063ffffffff6147ad16565b95945050505050565b604080516020810190915260008152610cd4906001600160a01b0385169084903090859063ffffffff613db016565b600080821215613dac5760405162461bcd60e51b81526004016105519061579f565b6000806144d76144ca848863ffffffff6126d416565b869063ffffffff61226916565b90506144ed86610efc868463ffffffff61226916565b9695505050505050565b60006145038484614818565b9050801580156145135750600082115b1561458a57614522848461489f565b614585576040516304e3532760e41b81526001600160a01b03851690634e3532709061455290869060040161518e565b600060405180830381600087803b15801561456c57600080fd5b505af1158015614580573d6000803e3d6000fd5b505050505b614607565b808015614595575081155b15614607576145a4848461489f565b61460757604051636f86c89760e01b81526001600160a01b03851690636f86c897906145d490869060040161518e565b600060405180830381600087803b1580156145ee57600080fd5b505af1158015614602573d6000803e3d6000fd5b505050505b836001600160a01b0316632ba57d178461462085613d87565b6040518363ffffffff1660e01b815260040161463d92919061525a565b600060405180830381600087803b15801561465757600080fd5b505af1158015610ca7573d6000803e3d6000fd5b80156104d7576040516370a0823160e01b81526000906001600160a01b038516906370a08231906146a090889060040161518e565b60206040518083038186803b1580156146b857600080fd5b505afa1580156146cc573d6000803e3d6000fd5b505050506040513d601f19601f820116820180604052508101906146f09190614fa8565b90506146fe8585858561492b565b6040516370a0823160e01b81526000906001600160a01b038616906370a082319061472d90899060040161518e565b60206040518083038186803b15801561474557600080fd5b505afa158015614759573d6000803e3d6000fd5b505050506040513d601f19601f8201168201806040525081019061477d9190614fa8565b905061478f828463ffffffff61226916565b81146133ee5760405162461bcd60e51b815260040161055190615a58565b6000826147bc575060006121ac565b826000191480156147d05750600160ff1b82145b156147ed5760405162461bcd60e51b815260040161055190615a11565b828202828482816147fa57fe5b05146121a95760405162461bcd60e51b815260040161055190615a11565b600080836001600160a01b03166366cb8d2f846040518263ffffffff1660e01b8152600401614847919061518e565b60206040518083038186803b15801561485f57600080fd5b505afa158015614873573d6000803e3d6000fd5b505050506040513d601f19601f820116820180604052508101906148979190614fa8565b139392505050565b600080836001600160a01b031663a7bdad03846040518263ffffffff1660e01b81526004016148ce919061518e565b60006040518083038186803b1580156148e657600080fd5b505afa1580156148fa573d6000803e3d6000fd5b505050506040513d6000823e601f3d908101601f191682016040526149229190810190614bc6565b51119392505050565b80156104d7576060828260405160240161494692919061525a565b60408051601f198184030181529181526020820180516001600160e01b031663a9059cbb60e01b179052516347b7819960e11b81529091506001600160a01b03861690638f6f033290613a309087906000908690600401615273565b6040805161012081018252600080825260208201819052918101829052606081018290526080810182905260a0810182905260c0810182905260e0810182905261010081019190915290565b6040518060c0016040528060006001600160a01b0316815260200160006001600160a01b0316815260200160006001600160a01b031681526020016000815260200160008152602001600081525090565b80516121ac81615dd6565b600082601f830112614a5a578081fd5b8135614a6d614a6882615d86565b615d5f565b9150808252836020828501011115614a8457600080fd5b8060208401602084013760009082016020015292915050565b600082601f830112614aad578081fd5b8151614abb614a6882615d86565b9150808252836020828501011115614ad257600080fd5b614ae3816020840160208601615daa565b5092915050565b600060208284031215614afb578081fd5b81356121a981615dd6565b600060208284031215614b17578081fd5b81516121a981615dd6565b600080600060608486031215614b36578182fd5b8351614b4181615dd6565b6020850151909350614b5281615dd6565b6040850151909250614b6381615dd6565b809150509250925092565b600080600060608486031215614b82578283fd5b8351614b8d81615dd6565b60208501516040860151919450925067ffffffffffffffff811115614bb0578182fd5b614bbc86828701614a9d565b9150509250925092565b60006020808385031215614bd8578182fd5b825167ffffffffffffffff80821115614bef578384fd5b81850186601f820112614c00578485fd5b8051925081831115614c10578485fd5b8383029150614c20848301615d5f565b8381528481019082860184840187018a1015614c3a578788fd5b8794505b85851015614c6457614c508a82614a3f565b835260019490940193918601918601614c3e565b5098975050505050505050565b600060208284031215614c82578081fd5b81356121a981615deb565b600060208284031215614c9e578081fd5b81516121a981615deb565b600060208284031215614cba578081fd5b815167ffffffffffffffff811115614cd0578182fd5b61303784828501614a9d565b600080600060608486031215614cf0578081fd5b8335614cfb81615dd6565b92506020840135614d0b81615dd6565b91506040840135614b6381615deb565b60008060408385031215614d2d578182fd5b8235614d3881615dd6565b91506020830135614d4881615deb565b809150509250929050565b60008060408385031215614d65578182fd5b8235614d7081615dd6565b91506020830135614d4881615dd6565b600080600060608486031215614d94578081fd5b8335614d9f81615dd6565b92506020840135614daf81615dd6565b91506040840135614b6381615dd6565b60008060008060008060c08789031215614dd7578384fd5b8635614de281615dd6565b95506020870135614df281615dd6565b94506040870135614e0281615dd6565b935060608701359250608087013567ffffffffffffffff80821115614e25578384fd5b614e318a838b01614a4a565b935060a0890135915080821115614e46578283fd5b50614e5389828a01614a4a565b9150509295509295509295565b600080600080600080600060e0888a031215614e7a578485fd5b8735614e8581615dd6565b96506020880135614e9581615dd6565b95506040880135614ea581615dd6565b9450606088013593506080880135925060a088013567ffffffffffffffff80821115614ecf578283fd5b614edb8b838c01614a4a565b935060c08a0135915080821115614ef0578283fd5b50614efd8a828b01614a4a565b91505092959891949750929550565b60008060408385031215614f1e578182fd5b8235614f2981615dd6565b946020939093013593505050565b60008060008060808587031215614f4c578182fd5b8435614f5781615dd6565b9350602085013592506040850135614f6e81615dd6565b91506060850135614f7e81615deb565b939692955090935050565b600060208284031215614f9a578081fd5b8151600381106121a9578182fd5b600060208284031215614fb9578081fd5b5051919050565b600080600060608486031215614fd4578081fd5b8351925060208401519150604084015190509250925092565b6000806000806000806000806000806101408b8d03121561500c578384fd5b8a51995060208b0151985060408b0151975060608b0151965060808b0151955060a08b015161503a81615deb565b60c08c015190955061504b81615deb565b60e08c015190945061505c81615deb565b6101008c015190935061506e81615deb565b6101208c015190925061508081615deb565b809150509295989b9194979a5092959850565b60008060008060008060c087890312156150ab578384fd5b865195506020870151945060408701519350606087015192506080870151915060a087015190509295509295509295565b60008060008060008060008060006101208a8c0312156150fa578283fd5b8951985060208a0151975060408a0151965060608a0151955060808a0151945060a08a0151935060c08a0151925060e08a015164ffffffffff8116811461513f578283fd5b6101008b015190925061515181615deb565b809150509295985092959850929598565b6000815180845261517a816020860160208601615daa565b601f01601f19169290920160200192915050565b6001600160a01b0391909116815260200190565b6001600160a01b0392831681529116602082015260400190565b6001600160a01b038781168252868116602083015285166040820152606081018490526080810183905260c060a082018190526000906151fe90830184615162565b98975050505050505050565b6001600160a01b0384811682528316602082015260606040820181905260009061445a90830184615162565b6001600160a01b039384168152919092166020820152604081019190915260600190565b6001600160a01b03929092168252602082015260400190565b600060018060a01b03851682528360208301526060604083015261445a6060830184615162565b901515815260200190565b6001600160a01b0394909416845260208401929092526040830152606082015260800190565b6001600160a01b039290921682521515602082015260400190565b6001600160a01b03968716815294861660208601529290941660408401526060830152608082019290925260a081019190915260c00190565b6001600160a01b039586168152938516602085015291841660408401529092166060820152608081019190915260a00190565b6001600160a01b039485168152928416602084015292166040820152901515606082015260800190565b6001600160a01b039485168152928416602084015292166040820152606081019190915260800190565b6001600160a01b03958616815293851660208501529190931660408301526060820192909252608081019190915260a00190565b6001600160a01b03948516815260208101939093529083166040830152909116606082015260800190565b6000602082526121a96020830184615162565b602080825260169082015275496e76616c69642061546f6b656e206164647265737360501b604082015260600190565b60208082526028908201527f4d75737420626520612076616c696420616e6420696e697469616c697a65642060408201526729b2ba2a37b5b2b760c11b606082015260800190565b60208082526026908201527f4f776e61626c653a206e6577206f776e657220697320746865207a65726f206160408201526564647265737360d01b606082015260800190565b6020808252601b908201527f536166654d6174683a206164646974696f6e206f766572666c6f770000000000604082015260600190565b60208082526013908201527246726f7a656e2061617665207265736572766560681b604082015260600190565b6020808252601a908201527f436f6c6c61746572616c20616c726561647920656e61626c6564000000000000604082015260600190565b6020808252601e908201527f4d7573742062652070656e64696e6720696e697469616c697a6174696f6e0000604082015260600190565b6020808252601a908201527f426f72726f77696e672064697361626c6564206f6e2041617665000000000000604082015260600190565b6020808252600d908201526c05175616e74697479206973203609c1b604082015260600190565b60208082526027908201527f4e6f2069737375696e67206265666f72652061737369676e696e6720626f72726040820152661bddd05cdcd95d60ca1b606082015260800190565b602080825260149082015273496e76616c69642061617665207265736572766560601b604082015260600190565b6020808252601e908201527f536166654d6174683a207375627472616374696f6e206f766572666c6f770000604082015260600190565b60208082526015908201527426bab9ba103132903b30b634b21030b230b83a32b960591b604082015260600190565b6020808252601190820152700a6d8d2e0e0c2ceca40e8dede40d0d2ced607b1b604082015260600190565b6020808252601a908201527f536166654d6174683a206469766973696f6e206279207a65726f000000000000604082015260600190565b60208082526016908201527510dbdb1b185d195c985b081b9bdd08195b98589b195960521b604082015260600190565b602080825260129082015271109bdc9c9bddc81b9bdd08195b98589b195960721b604082015260600190565b6020808252818101527f53616665436173743a2076616c7565206d75737420626520706f736974697665604082015260600190565b60208082526023908201527f496e76616c6964207661726961626c65206465627420746f6b656e206164647260408201526265737360e81b606082015260800190565b60208082526018908201527f4f6e6c7920746865206d6f64756c652063616e2063616c6c0000000000000000604082015260600190565b60208082526018908201527f49737375616e6365206e6f7420696e697469616c697a65640000000000000000604082015260600190565b60208082526030908201527f45787465726e616c20706f736974696f6e73206d757374206265203020746f2060408201526f1c995b5bdd994818dbdb5c1bdb995b9d60821b606082015260800190565b6020808252601d908201527f4d7573742062652074686520617574686f72697a65642063616c6c6572000000604082015260600190565b6020808252601a908201527f4e6f7420656e6f75676820746f2062652077697468647261776e000000000000604082015260600190565b60208082526021908201527f536166654d6174683a206d756c7469706c69636174696f6e206f766572666c6f6040820152607760f81b606082015260800190565b60208082526010908201526f24b73b30b634b21029b2ba2a37b5b2b760811b604082015260600190565b6020808252818101527f4f776e61626c653a2063616c6c6572206973206e6f7420746865206f776e6572604082015260600190565b6020808252601490820152732737ba1030b63637bbb2b21029b2ba2a37b5b2b760611b604082015260600190565b60208082526027908201527f5369676e6564536166654d6174683a206d756c7469706c69636174696f6e206f604082015266766572666c6f7760c81b606082015260800190565b6020808252601d908201527f496e76616c696420706f7374207472616e736665722062616c616e6365000000604082015260600190565b60208082526017908201527f5661726961626c6520646562742072656d61696e696e67000000000000000000604082015260600190565b60208082526018908201527f5061737365642064617461206d757374206265206e756c6c0000000000000000604082015260600190565b60208082526028908201527f53616665436173743a2076616c756520646f65736e27742066697420696e2061604082015267371034b73a191a9b60c11b606082015260800190565b60208082526024908201527f4d6f64756c65206d75737420626520656e61626c6564206f6e20636f6e74726f604082015263363632b960e11b606082015260800190565b60208082526023908201527f4d75737420626520636f6e74726f6c6c65722d656e61626c656420536574546f60408201526235b2b760e91b606082015260800190565b6020808252601c908201527f4d7573742062652074686520536574546f6b656e206d616e6167657200000000604082015260600190565b6020808252601b908201527f436f6c6c61746572616c2064697361626c6564206f6e20416176650000000000604082015260600190565b602080825260169082015275426f72726f772062616c616e6365206973207a65726f60501b604082015260600190565b6020808252601f908201527f5265656e7472616e637947756172643a207265656e7472616e742063616c6c00604082015260600190565b602080825260169082015275109bdc9c9bddc8185b1c9958591e48195b98589b195960521b604082015260600190565b6020808252602d908201527f436f6c6c61746572616c20616e6420626f72726f77206173736574206d75737460408201526c08189948191a5999995c995b9d609a1b606082015260800190565b60208082526010908201526f043616e742064697669646520627920360841b604082015260600190565b90815260200190565b918252602082015260400190565b60405181810167ffffffffffffffff81118282101715615d7e57600080fd5b604052919050565b600067ffffffffffffffff821115615d9c578081fd5b50601f01601f191660200190565b60005b83811015615dc5578181015183820152602001615dad565b838111156104d75750506000910152565b6001600160a01b0381168114611cfd57600080fd5b8015158114611cfd57600080fdfea264697066735822122074ce9eadfb109ebbe1314c9eed6e646b040be1b388c1f03ef4b62b44e6c1bdc064736f6c634300060a0033",
  "linkReferences": {
    "@setprotocol/set-protocol-v2/contracts/protocol/integration/lib/AaveV2.sol": {
      "AaveV2": [
        {
          "length": 20,
          "start": 9378
        },
        {
          "length": 20,
          "start": 12272
        },
        {
          "length": 20,
          "start": 13092
        },
        {
          "length": 20,
          "start": 15887
        },
        {
          "length": 20,
          "start": 15987
        }
      ]
    },
    "contracts/lib/IndexUtils.sol": {
      "IndexUtils": [
        {
          "length": 20,
          "start": 6613
        },
        {
          "length": 20,
          "start": 6822
        },
        {
          "length": 20,
          "start": 7046
        }
      ]
    }
  },
  "deployedLinkReferences": {
    "@setprotocol/set-protocol-v2/contracts/protocol/integration/lib/AaveV2.sol": {
      "AaveV2": [
        {
          "length": 20,
          "start": 7773
        },
        {
          "length": 20,
          "start": 10667
        },
        {
          "length": 20,
          "start": 11487
        },
        {
          "length": 20,
          "start": 14282
        },
        {
          "length": 20,
          "start": 14382
        }
      ]
    },
    "contracts/lib/IndexUtils.sol": {
      "IndexUtils": [
        {
          "length": 20,
          "start": 5008
        },
        {
          "length": 20,
          "start": 5217
        },
        {
          "length": 20,
          "start": 5441
        }
      ]
    }
  }
}