{
  "_format": "hh-sol-artifact-1",
  "contractName": "Lev3xIssuanceModule",
  "sourceName": "contracts/modules/Lev3xIssuanceModule.sol",
  "abi": [
    {
      "inputs": [
        {
          "internalType": "contract IController",
          "name": "_controller",
          "type": "address"
        },
        {
          "internalType": "contract ILendingPoolAddressesProvider",
          "name": "_lendingPoolAddressesProvider",
          "type": "address"
        }
      ],
      "stateMutability": "nonpayable",
      "type": "constructor"
    },
    {
      "anonymous": false,
      "inputs": [
        {
          "indexed": true,
          "internalType": "contract ISetToken",
          "name": "_setToken",
          "type": "address"
        },
        {
          "indexed": false,
          "internalType": "address",
          "name": "_newFeeRecipient",
          "type": "address"
        }
      ],
      "name": "FeeRecipientUpdated",
      "type": "event"
    },
    {
      "anonymous": false,
      "inputs": [
        {
          "indexed": true,
          "internalType": "contract ISetToken",
          "name": "_setToken",
          "type": "address"
        },
        {
          "indexed": false,
          "internalType": "uint256",
          "name": "_newIssueFee",
          "type": "uint256"
        }
      ],
      "name": "IssueFeeUpdated",
      "type": "event"
    },
    {
      "anonymous": false,
      "inputs": [
        {
          "indexed": true,
          "internalType": "contract ISetToken",
          "name": "_setToken",
          "type": "address"
        },
        {
          "indexed": false,
          "internalType": "uint256",
          "name": "_newRedeemFee",
          "type": "uint256"
        }
      ],
      "name": "RedeemFeeUpdated",
      "type": "event"
    },
    {
      "anonymous": false,
      "inputs": [
        {
          "indexed": true,
          "internalType": "contract ISetToken",
          "name": "_setToken",
          "type": "address"
        },
        {
          "indexed": true,
          "internalType": "address",
          "name": "_issuer",
          "type": "address"
        },
        {
          "indexed": true,
          "internalType": "address",
          "name": "_to",
          "type": "address"
        },
        {
          "indexed": false,
          "internalType": "address",
          "name": "_hookContract",
          "type": "address"
        },
        {
          "indexed": false,
          "internalType": "uint256",
          "name": "_quantity",
          "type": "uint256"
        },
        {
          "indexed": false,
          "internalType": "uint256",
          "name": "_managerFee",
          "type": "uint256"
        },
        {
          "indexed": false,
          "internalType": "uint256",
          "name": "_protocolFee",
          "type": "uint256"
        }
      ],
      "name": "SetTokenIssued",
      "type": "event"
    },
    {
      "anonymous": false,
      "inputs": [
        {
          "indexed": true,
          "internalType": "contract ISetToken",
          "name": "_setToken",
          "type": "address"
        },
        {
          "indexed": true,
          "internalType": "address",
          "name": "_redeemer",
          "type": "address"
        },
        {
          "indexed": true,
          "internalType": "address",
          "name": "_to",
          "type": "address"
        },
        {
          "indexed": false,
          "internalType": "uint256",
          "name": "_quantity",
          "type": "uint256"
        },
        {
          "indexed": false,
          "internalType": "uint256",
          "name": "_managerFee",
          "type": "uint256"
        },
        {
          "indexed": false,
          "internalType": "uint256",
          "name": "_protocolFee",
          "type": "uint256"
        }
      ],
      "name": "SetTokenRedeemed",
      "type": "event"
    },
    {
      "inputs": [],
      "name": "LTV_MARGIN",
      "outputs": [
        {
          "internalType": "uint256",
          "name": "",
          "type": "uint256"
        }
      ],
      "stateMutability": "view",
      "type": "function"
    },
    {
      "inputs": [],
      "name": "UNISWAP_INTEGRATION",
      "outputs": [
        {
          "internalType": "string",
          "name": "",
          "type": "string"
        }
      ],
      "stateMutability": "view",
      "type": "function"
    },
    {
      "inputs": [
        {
          "internalType": "contract ISetToken",
          "name": "_setToken",
          "type": "address"
        },
        {
          "internalType": "uint256",
          "name": "_quantity",
          "type": "uint256"
        },
        {
          "internalType": "bool",
          "name": "_isIssue",
          "type": "bool"
        }
      ],
      "name": "calculateEquityIssuanceCost",
      "outputs": [
        {
          "internalType": "uint256",
          "name": "_equityCost",
          "type": "uint256"
        }
      ],
      "stateMutability": "view",
      "type": "function"
    },
    {
      "inputs": [
        {
          "internalType": "contract ISetToken",
          "name": "_setToken",
          "type": "address"
        },
        {
          "internalType": "uint256",
          "name": "_quantity",
          "type": "uint256"
        },
        {
          "internalType": "bool",
          "name": "_isIssue",
          "type": "bool"
        }
      ],
      "name": "calculateTotalFees",
      "outputs": [
        {
          "internalType": "uint256",
          "name": "totalQuantity",
          "type": "uint256"
        },
        {
          "internalType": "uint256",
          "name": "managerFee",
          "type": "uint256"
        },
        {
          "internalType": "uint256",
          "name": "protocolFee",
          "type": "uint256"
        }
      ],
      "stateMutability": "view",
      "type": "function"
    },
    {
      "inputs": [],
      "name": "controller",
      "outputs": [
        {
          "internalType": "contract IController",
          "name": "",
          "type": "address"
        }
      ],
      "stateMutability": "view",
      "type": "function"
    },
    {
      "inputs": [
        {
          "internalType": "contract ISetToken",
          "name": "_setToken",
          "type": "address"
        }
      ],
      "name": "getModuleIssuanceHooks",
      "outputs": [
        {
          "internalType": "address[]",
          "name": "",
          "type": "address[]"
        }
      ],
      "stateMutability": "view",
      "type": "function"
    },
    {
      "inputs": [
        {
          "internalType": "contract ISetToken",
          "name": "_setToken",
          "type": "address"
        },
        {
          "internalType": "uint256",
          "name": "_quantity",
          "type": "uint256"
        }
      ],
      "name": "getRequiredComponentIssuanceUnits",
      "outputs": [
        {
          "internalType": "address[]",
          "name": "",
          "type": "address[]"
        },
        {
          "internalType": "uint256[]",
          "name": "",
          "type": "uint256[]"
        },
        {
          "internalType": "uint256[]",
          "name": "",
          "type": "uint256[]"
        }
      ],
      "stateMutability": "view",
      "type": "function"
    },
    {
      "inputs": [
        {
          "internalType": "contract ISetToken",
          "name": "_setToken",
          "type": "address"
        },
        {
          "internalType": "uint256",
          "name": "_quantity",
          "type": "uint256"
        }
      ],
      "name": "getRequiredComponentRedemptionUnits",
      "outputs": [
        {
          "internalType": "address[]",
          "name": "",
          "type": "address[]"
        },
        {
          "internalType": "uint256[]",
          "name": "",
          "type": "uint256[]"
        },
        {
          "internalType": "uint256[]",
          "name": "",
          "type": "uint256[]"
        }
      ],
      "stateMutability": "view",
      "type": "function"
    },
    {
      "inputs": [
        {
          "internalType": "contract ISetToken",
          "name": "_setToken",
          "type": "address"
        },
        {
          "internalType": "uint256",
          "name": "_maxManagerFee",
          "type": "uint256"
        },
        {
          "internalType": "uint256",
          "name": "_managerIssueFee",
          "type": "uint256"
        },
        {
          "internalType": "uint256",
          "name": "_managerRedeemFee",
          "type": "uint256"
        },
        {
          "internalType": "address",
          "name": "_feeRecipient",
          "type": "address"
        },
        {
          "internalType": "contract IManagerIssuanceHook",
          "name": "_managerIssuanceHook",
          "type": "address"
        }
      ],
      "name": "initialize",
      "outputs": [],
      "stateMutability": "nonpayable",
      "type": "function"
    },
    {
      "inputs": [
        {
          "internalType": "contract ISetToken",
          "name": "_setToken",
          "type": "address"
        },
        {
          "internalType": "address",
          "name": "_hook",
          "type": "address"
        }
      ],
      "name": "isModuleIssuanceHook",
      "outputs": [
        {
          "internalType": "bool",
          "name": "",
          "type": "bool"
        }
      ],
      "stateMutability": "view",
      "type": "function"
    },
    {
      "inputs": [
        {
          "internalType": "contract ISetToken",
          "name": "",
          "type": "address"
        }
      ],
      "name": "issuanceSettings",
      "outputs": [
        {
          "internalType": "uint256",
          "name": "maxManagerFee",
          "type": "uint256"
        },
        {
          "internalType": "uint256",
          "name": "managerIssueFee",
          "type": "uint256"
        },
        {
          "internalType": "uint256",
          "name": "managerRedeemFee",
          "type": "uint256"
        },
        {
          "internalType": "address",
          "name": "feeRecipient",
          "type": "address"
        },
        {
          "internalType": "contract IManagerIssuanceHook",
          "name": "managerIssuanceHook",
          "type": "address"
        }
      ],
      "stateMutability": "view",
      "type": "function"
    },
    {
      "inputs": [
        {
          "internalType": "contract ISetToken",
          "name": "_setToken",
          "type": "address"
        },
        {
          "internalType": "uint256",
          "name": "_quantity",
          "type": "uint256"
        },
        {
          "internalType": "address",
          "name": "_to",
          "type": "address"
        },
        {
          "internalType": "uint256",
          "name": "_maxEquityCost",
          "type": "uint256"
        }
      ],
      "name": "issue",
      "outputs": [],
      "stateMutability": "nonpayable",
      "type": "function"
    },
    {
      "inputs": [],
      "name": "lendingPoolAddressesProvider",
      "outputs": [
        {
          "internalType": "contract ILendingPoolAddressesProvider",
          "name": "",
          "type": "address"
        }
      ],
      "stateMutability": "view",
      "type": "function"
    },
    {
      "inputs": [
        {
          "internalType": "contract ISetToken",
          "name": "_setToken",
          "type": "address"
        },
        {
          "internalType": "uint256",
          "name": "_quantity",
          "type": "uint256"
        },
        {
          "internalType": "address",
          "name": "_to",
          "type": "address"
        },
        {
          "internalType": "uint256",
          "name": "_minEquityReceived",
          "type": "uint256"
        }
      ],
      "name": "redeem",
      "outputs": [],
      "stateMutability": "nonpayable",
      "type": "function"
    },
    {
      "inputs": [
        {
          "internalType": "contract ISetToken",
          "name": "_setToken",
          "type": "address"
        }
      ],
      "name": "registerToIssuanceModule",
      "outputs": [],
      "stateMutability": "nonpayable",
      "type": "function"
    },
    {
      "inputs": [],
      "name": "removeModule",
      "outputs": [],
      "stateMutability": "nonpayable",
      "type": "function"
    },
    {
      "inputs": [
        {
          "internalType": "contract ISetToken",
          "name": "_setToken",
          "type": "address"
        }
      ],
      "name": "unregisterFromIssuanceModule",
      "outputs": [],
      "stateMutability": "nonpayable",
      "type": "function"
    },
    {
      "inputs": [
        {
          "internalType": "contract ISetToken",
          "name": "_setToken",
          "type": "address"
        },
        {
          "internalType": "address",
          "name": "_newFeeRecipient",
          "type": "address"
        }
      ],
      "name": "updateFeeRecipient",
      "outputs": [],
      "stateMutability": "nonpayable",
      "type": "function"
    },
    {
      "inputs": [
        {
          "internalType": "contract ISetToken",
          "name": "_setToken",
          "type": "address"
        },
        {
          "internalType": "uint256",
          "name": "_newIssueFee",
          "type": "uint256"
        }
      ],
      "name": "updateIssueFee",
      "outputs": [],
      "stateMutability": "nonpayable",
      "type": "function"
    },
    {
      "inputs": [
        {
          "internalType": "contract ISetToken",
          "name": "_setToken",
          "type": "address"
        },
        {
          "internalType": "uint256",
          "name": "_newRedeemFee",
          "type": "uint256"
        }
      ],
      "name": "updateRedeemFee",
      "outputs": [],
      "stateMutability": "nonpayable",
      "type": "function"
    }
  ],
  "bytecode": "0x60806040523480156200001157600080fd5b506040516200499c3803806200499c83398101604081905262000034916200006a565b600080546001600160a01b039384166001600160a01b0319918216179091556001805560038054929093169116179055620000c1565b600080604083850312156200007d578182fd5b82516200008a81620000a8565b60208401519092506200009d81620000a8565b809150509250929050565b6001600160a01b0381168114620000be57600080fd5b50565b6148cb80620000d16000396000f3fe608060405234801561001057600080fd5b506004361061012c5760003560e01c8063847ef08d116100ad578063cd3c753911610071578063cd3c75391461028c578063d9b1b6e0146102b0578063e0799620146102c3578063f3f094a1146102d6578063f77c4791146102e95761012c565b8063847ef08d146102275780638dda40371461022f578063bba00ba514610251578063bf9fe13814610266578063cb38b223146102795761012c565b806348125b00116100f457806348125b00146101b95780635d98c373146101ce57806363082446146101e15780636b8e53b6146102015780636dd86aa9146102145761012c565b806308bc0e111461013157806311f3b5a41461015a578063131e26b91461016f5780631eed3ded146101915780632d336592146101a4575b600080fd5b61014461013f366004613985565b6102f1565b6040516101519190613d55565b60405180910390f35b61016261036a565b60405161015191906147ac565b61018261017d3660046139d9565b610375565b60405161015193929190613d68565b61016261019f366004613a4b565b6103a6565b6101ac6103bd565b6040516101519190613e59565b6101cc6101c7366004613a04565b6103e0565b005b6101cc6101dc3660046139a1565b6105dc565b6101f46101ef3660046139a1565b6106bc565b6040516101519190613d9f565b61018261020f3660046139d9565b6106f0565b6101cc6102223660046139d9565b610713565b6101cc6107df565b61024261023d366004613a4b565b610862565b604051610151939291906147b5565b610259610a38565b6040516101519190613c4d565b6101cc610274366004613a8c565b610a47565b6101cc6102873660046139d9565b610bca565b61029f61029a366004613985565b610c95565b6040516101519594939291906147cb565b6101cc6102be366004613985565b610cd1565b6101cc6102d1366004613985565b610d89565b6101cc6102e4366004613a04565b610e3f565b61025961115c565b6001600160a01b03811660009081526002602090815260409182902060050180548351818402810184019094528084526060939283018282801561035e57602002820191906000526020600020905b81546001600160a01b03168152600190910190602001808311610340575b50505050509050919050565b66b1a2bc2ec5000081565b6060806060600061038886866001610862565b505090506103988682600161116b565b935093509350509250925092565b60006103b38484846112ea565b5095945050505050565b604051806040016040528060078152602001660554e49535741560cc1b81525081565b6002600154141561040c5760405162461bcd60e51b8152600401610403906146d1565b60405180910390fd5b60026001558361041b8161136e565b6000841161043b5760405162461bcd60e51b8152600401610403906140c4565b600061044986863387611396565b90506104558686611437565b6000866001600160a01b03166318160ddd6040518163ffffffff1660e01b815260040160206040518083038186803b15801561049057600080fd5b505afa1580156104a4573d6000803e3d6000fd5b505050506040513d601f19601f820116820180604052508101906104c89190613b11565b90506000806104d9898960016112ea565b50909250905060006104f1848a63ffffffff61153e16565b90506104fe83838961156a565b61050f8a8a8a600187878a886118b1565b50506040516340c10f1960e01b81526001600160a01b038a1692506340c10f1991506105419088908a90600401613c61565b600060405180830381600087803b15801561055b57600080fd5b505af115801561056f573d6000803e3d6000fd5b50505050846001600160a01b0316336001600160a01b0316886001600160a01b03167f1abc43bc3dd8b6c8bb9bcf1a14a84f83981bf5335700ef07758efefcb03a8c75858a6000806040516105c79493929190613d2f565b60405180910390a45050600180555050505050565b816105e681611987565b6001600160a01b03821661060c5760405162461bcd60e51b8152600401610403906144d1565b6001600160a01b038084166000908152600260205260409020600301548382169116141561064c5760405162461bcd60e51b815260040161040390614456565b6001600160a01b038381166000818152600260205260409081902060030180546001600160a01b0319169386169390931790925590517faaebcf1bfa00580e41d966056b48521fa9f202645c86d4ddf28113e617c1b1d3906106af908590613c4d565b60405180910390a2505050565b6001600160a01b038083166000908152600260209081526040808320938516835260069093019052205460ff165b92915050565b6060806060600061070386866000610862565b505090506103988682600061116b565b8161071d81611987565b6001600160a01b0383166000908152600260205260409020548211156107555760405162461bcd60e51b815260040161040390613e9b565b6001600160a01b038316600090815260026020819052604090912001548214156107915760405162461bcd60e51b815260040161040390613ed2565b6001600160a01b03831660008181526002602081905260409182902001849055517f676eda176d6aa20e9aa09b9ee131487c90646cd2b951176f75bd6fccdc026177906106af9085906147ac565b336000908152600260205260409020600501541561080f5760405162461bcd60e51b81526004016104039061468e565b3360009081526002602081905260408220828155600181018390559081018290556003810180546001600160a01b031990811690915560048201805490911690559061085e6005830182613703565b5050565b600080600061086f613721565b6001600160a01b03808816600090815260026020818152604092839020835160c0810185528154815260018201548184015292810154838501526003810154851660608401526004810154909416608083015260058401805484518184028101840190955280855292949360a0860193909283018282801561091a57602002820191906000526020600020905b81546001600160a01b031681526001909101906020018083116108fc575b5050509190925250506000805460405163792aa04f60e01b815293945090926001600160a01b03909116915063792aa04f9061095c9030908590600401613c61565b60206040518083038186803b15801561097457600080fd5b505afa158015610988573d6000803e3d6000fd5b505050506040513d601f19601f820116820180604052508101906109ac9190613b11565b90506000866109bf5782604001516109c5565b82602001515b905060006109d9828a63ffffffff6119ad16565b90506109eb818463ffffffff6119ad16565b94506109fd818663ffffffff6119d716565b955087610a1957610a14898263ffffffff6119d716565b610a29565b610a29898263ffffffff61153e16565b96505050505093509350939050565b6003546001600160a01b031681565b8533610a5382826119ff565b87610a5d81611a25565b87871115610a7d5760405162461bcd60e51b815260040161040390614414565b87861115610a9d5760405162461bcd60e51b815260040161040390614708565b6040805160c08101825289815260208082018a90528183018990526001600160a01b0388811660608401528716608083015282516000808252918101909352909160a08301915090526001600160a01b03808b1660009081526002602081815260409283902085518155858201516001820155928501519183019190915560608401516003830180549185166001600160a01b031992831617905560808501516004840180549190951691161790925560a083015180519192610b6892600585019290910190613769565b50905050886001600160a01b0316630ffe0f1e6040518163ffffffff1660e01b8152600401600060405180830381600087803b158015610ba757600080fd5b505af1158015610bbb573d6000803e3d6000fd5b50505050505050505050505050565b81610bd481611987565b6001600160a01b038316600090815260026020526040902054821115610c0c5760405162461bcd60e51b81526004016104039061408d565b6001600160a01b038316600090815260026020526040902060010154821415610c475760405162461bcd60e51b81526004016104039061436f565b6001600160a01b03831660008181526002602052604090819020600101849055517fd1de57b1db6a29967f337d6f744b7811624dabf2be924c65708336a81678d077906106af9085906147ac565b60026020819052600091825260409091208054600182015492820154600383015460049093015491939290916001600160a01b03918216911685565b80610cdb81611ae6565b81610ce58161136e565b6001600160a01b038316600090815260026020908152604080832033845260060190915290205460ff1615610d2c5760405162461bcd60e51b81526004016104039061454f565b50506001600160a01b03166000908152600260209081526040808320600581018054600181810183559186528486200180546001600160a01b0319163390811790915585526006909101909252909120805460ff19169091179055565b80610d9381611ae6565b81610d9d8161136e565b6001600160a01b038316600090815260026020908152604080832033845260060190915290205460ff16610de35760405162461bcd60e51b815260040161040390613f81565b6001600160a01b0383166000908152600260205260409020610e0e906005013363ffffffff611c2816565b50506001600160a01b031660009081526002602090815260408083203384526006019091529020805460ff19169055565b60026001541415610e625760405162461bcd60e51b8152600401610403906146d1565b600260015583610e718161136e565b6040516370a0823160e01b81526001600160a01b038616906370a0823190610e9d903390600401613c4d565b60206040518083038186803b158015610eb557600080fd5b505afa158015610ec9573d6000803e3d6000fd5b505050506040513d601f19601f82011682018060405250810190610eed9190613b11565b841115610f0c5760405162461bcd60e51b81526004016104039061474b565b60008411610f2c5760405162461bcd60e51b815260040161040390613fb1565b6000856001600160a01b03166318160ddd6040518163ffffffff1660e01b815260040160206040518083038186803b158015610f6757600080fd5b505afa158015610f7b573d6000803e3d6000fd5b505050506040513d601f19601f82011682018060405250810190610f9f9190613b11565b11610fbc5760405162461bcd60e51b8152600401610403906142f7565b610fc68585611d54565b6000856001600160a01b03166318160ddd6040518163ffffffff1660e01b815260040160206040518083038186803b15801561100157600080fd5b505afa158015611015573d6000803e3d6000fd5b505050506040513d601f19601f820116820180604052508101906110399190613b11565b905060008061104a888860006112ea565b5090925090506000611062848963ffffffff6119d716565b90506110718989600086611e55565b604051632770a7eb60e21b81526001600160a01b038a1690639dc29fac9061109f9033908c90600401613c61565b600060405180830381600087803b1580156110b957600080fd5b505af11580156110cd573d6000803e3d6000fd5b5050505060006110e48a8a8a600088888b896118b1565b90506110f284828a8a611e63565b50505050836001600160a01b0316336001600160a01b0316876001600160a01b03167f54f4ed50e49638053e1655b45ee7ece434edd150e6771ac0aaedb8355be13a3388600080604051611148939291906147b5565b60405180910390a450506001805550505050565b6000546001600160a01b031681565b60608060608060608061117d8961214b565b8251929550909350915060608167ffffffffffffffff811180156111a057600080fd5b506040519080825280602002602001820160405280156111ca578160200160208202803683370190505b50905060608267ffffffffffffffff811180156111e657600080fd5b50604051908082528060200260200182016040528015611210578160200160208202803683370190505b50905060005b86518110156112d6578a61124f5761124a8c87838151811061123457fe5b60200260200101516119ad90919063ffffffff16565b611275565b6112758c87838151811061125f57fe5b60200260200101516124dc90919063ffffffff16565b83828151811061128157fe5b6020026020010181815250508a6112a7576112a28c86838151811061125f57fe5b6112b7565b6112b78c86838151811061123457fe5b8282815181106112c357fe5b6020908102919091010152600101611216565b50949b909a50939850929650505050505050565b6000806000806000806112fd8988612533565b925092509250600080886113205761131b848b63ffffffff6119ad16565b611330565b611330848b63ffffffff6124dc16565b91508861134c57611347838b63ffffffff6124dc16565b61135c565b61135c838b63ffffffff6119ad16565b949b919a509398509650505050505050565b61137781612699565b6113935760405162461bcd60e51b815260040161040390613f02565b50565b6001600160a01b0380851660009081526002602052604081206004015490911680156114295760405163a045808360e01b81526001600160a01b0382169063a0458083906113ee908990899089908990600401613e04565b600060405180830381600087803b15801561140857600080fd5b505af115801561141c573d6000803e3d6000fd5b505050508091505061142f565b60009150505b949350505050565b6001600160a01b0382166000908152600260209081526040918290206005018054835181840281018401909452808452606093928301828280156114a457602002820191906000526020600020905b81546001600160a01b03168152600190910190602001808311611486575b50939450600093505050505b8151811015611538578181815181106114c557fe5b60200260200101516001600160a01b031663c153dd0785856040518363ffffffff1660e01b81526004016114fa929190613c61565b600060405180830381600087803b15801561151457600080fd5b505af1158015611528573d6000803e3d6000fd5b5050600190920191506114b09050565b50505050565b6000828201838110156115635760405162461bcd60e51b815260040161040390613fe8565b9392505050565b8082111561158a5760405162461bcd60e51b81526004016104039061421f565b60035460408051630261bf8b60e01b815290516000926001600160a01b031691630261bf8b916004808301926020929190829003018186803b1580156115cf57600080fd5b505afa1580156115e3573d6000803e3d6000fd5b505050506040513d601f19601f820116820180604052508101906116079190613816565b90508215611538576000846001600160a01b031663b16a19de6040518163ffffffff1660e01b815260040160206040518083038186803b15801561164a57600080fd5b505afa15801561165e573d6000803e3d6000fd5b505050506040513d601f19601f820116820180604052508101906116829190613816565b90506116908133308761279d565b6040516370a0823160e01b81526000906001600160a01b038716906370a08231906116bf903090600401613c4d565b60206040518083038186803b1580156116d757600080fd5b505afa1580156116eb573d6000803e3d6000fd5b505050506040513d601f19601f8201168201806040525081019061170f9190613b11565b60405163095ea7b360e01b81529091506001600160a01b0383169063095ea7b3906117409086908990600401613c61565b602060405180830381600087803b15801561175a57600080fd5b505af115801561176e573d6000803e3d6000fd5b505050506040513d601f19601f8201168201806040525081019061179291906138dd565b5060405163e8eda9df60e01b81526001600160a01b0384169063e8eda9df906117c690859089903090600090600401613d02565b600060405180830381600087803b1580156117e057600080fd5b505af11580156117f4573d6000803e3d6000fd5b50506040516370a0823160e01b8152600092506001600160a01b03891691506370a0823190611827903090600401613c4d565b60206040518083038186803b15801561183f57600080fd5b505afa158015611853573d6000803e3d6000fd5b505050506040513d601f19601f820116820180604052508101906118779190613b11565b90508561188a828463ffffffff6119d716565b10156118a85760405162461bcd60e51b8152600401610403906143e5565b50505050505050565b600083801561197a5786156119525760405163095ea7b360e01b81526001600160a01b0387169063095ea7b3906118ee9030908590600401613c61565b602060405180830381600087803b15801561190857600080fd5b505af115801561191c573d6000803e3d6000fd5b505050506040513d601f19601f8201168201806040525081019061194091906138dd565b5061194d86308c8461279d565b61197a565b61195d8a87836127f5565b905061197a6001600160a01b038b1687308463ffffffff6128c616565b9998505050505050505050565b611991813361299b565b61136e5760405162461bcd60e51b81526004016104039061460d565b6000611563670de0b6b3a76400006119cb858563ffffffff612a2916565b9063ffffffff612a6316565b6000828211156119f95760405162461bcd60e51b81526004016104039061413c565b50900390565b611a09828261299b565b61085e5760405162461bcd60e51b81526004016104039061460d565b600054604051631d3af8fb60e21b81526001600160a01b03909116906374ebe3ec90611a55908490600401613c4d565b60206040518083038186803b158015611a6d57600080fd5b505afa158015611a81573d6000803e3d6000fd5b505050506040513d601f19601f82011682018060405250810190611aa591906138dd565b611ac15760405162461bcd60e51b8152600401610403906145ca565b611aca81612a95565b6113935760405162461bcd60e51b81526004016104039061401f565b6002604051631ade272960e11b81526001600160a01b038316906335bc4e5290611b14903390600401613c4d565b60206040518083038186803b158015611b2c57600080fd5b505afa158015611b40573d6000803e3d6000fd5b505050506040513d601f19601f82011682018060405250810190611b649190613af2565b6002811115611b6f57fe5b14611b8c5760405162461bcd60e51b8152600401610403906142c0565b6000546040516342f6e38960e01b81526001600160a01b03909116906342f6e38990611bbc903390600401613c4d565b60206040518083038186803b158015611bd457600080fd5b505afa158015611be8573d6000803e3d6000fd5b505050506040513d601f19601f82011682018060405250810190611c0c91906138dd565b6113935760405162461bcd60e51b815260040161040390614586565b600080611c8e84805480602002602001604051908101604052809291908181526020018280548015611c8357602002820191906000526020600020905b81546001600160a01b03168152600190910190602001808311611c65575b505050505084612ac4565b9150915080611caf5760405162461bcd60e51b815260040161040390613e6c565b835460001901828114611d2157848181548110611cc857fe5b9060005260206000200160009054906101000a90046001600160a01b0316858481548110611cf257fe5b9060005260206000200160006101000a8154816001600160a01b0302191690836001600160a01b031602179055505b84805480611d2b57fe5b600082815260209020810160001990810180546001600160a01b03191690550190555050505050565b6001600160a01b038216600090815260026020908152604091829020600501805483518184028101840190945280845260609392830182828015611dc157602002820191906000526020600020905b81546001600160a01b03168152600190910190602001808311611da3575b50939450600093505050505b815181101561153857818181518110611de257fe5b60200260200101516001600160a01b0316633fe6106b85856040518363ffffffff1660e01b8152600401611e17929190613c61565b600060405180830381600087803b158015611e3157600080fd5b505af1158015611e45573d6000803e3d6000fd5b505060019092019150611dcd9050565b611538848483856000612b2a565b60035460408051630261bf8b60e01b815290516000926001600160a01b031691630261bf8b916004808301926020929190829003018186803b158015611ea857600080fd5b505afa158015611ebc573d6000803e3d6000fd5b505050506040513d601f19601f82011682018060405250810190611ee09190613816565b90508315612144576000856001600160a01b031663b16a19de6040518163ffffffff1660e01b815260040160206040518083038186803b158015611f2357600080fd5b505afa158015611f37573d6000803e3d6000fd5b505050506040513d601f19601f82011682018060405250810190611f5b9190613816565b90506000816001600160a01b03166370a08231866040518263ffffffff1660e01b8152600401611f8b9190613c4d565b60206040518083038186803b158015611fa357600080fd5b505afa158015611fb7573d6000803e3d6000fd5b505050506040513d601f19601f82011682018060405250810190611fdb9190613b11565b604051631a4ca37b60e21b81529091506001600160a01b038416906369328dec9061200e9085908a908a90600401613cdf565b602060405180830381600087803b15801561202857600080fd5b505af115801561203c573d6000803e3d6000fd5b505050506040513d601f19601f820116820180604052508101906120609190613b11565b506040516370a0823160e01b81526000906001600160a01b038416906370a0823190612090908990600401613c4d565b60206040518083038186803b1580156120a857600080fd5b505afa1580156120bc573d6000803e3d6000fd5b505050506040513d601f19601f820116820180604052508101906120e09190613b11565b9050846120f3828463ffffffff6119d716565b10156121115760405162461bcd60e51b815260040161040390613f4a565b86612122828463ffffffff6119d716565b10156121405760405162461bcd60e51b815260040161040390614056565b5050505b5050505050565b606080606080846001600160a01b03166399d50d5d6040518163ffffffff1660e01b815260040160006040518083038186803b15801561218a57600080fd5b505afa15801561219e573d6000803e3d6000fd5b505050506040513d6000823e601f3d908101601f191682016040526121c69190810190613832565b805190915060608167ffffffffffffffff811180156121e457600080fd5b5060405190808252806020026020018201604052801561220e578160200160208202803683370190505b50905060608267ffffffffffffffff8111801561222a57600080fd5b50604051908082528060200260200182016040528015612254578160200160208202803683370190505b50905060005b84518110156124cc57600085828151811061227157fe5b6020026020010151905060008a6001600160a01b03166366cb8d2f836040518263ffffffff1660e01b81526004016122a99190613c4d565b60206040518083038186803b1580156122c157600080fd5b505afa1580156122d5573d6000803e3d6000fd5b505050506040513d601f19601f820116820180604052508101906122f99190613b11565b60405163a7bdad0360e01b81529091506000906060906001600160a01b038e169063a7bdad039061232e908790600401613c4d565b60006040518083038186803b15801561234657600080fd5b505afa15801561235a573d6000803e3d6000fd5b505050506040513d6000823e601f3d908101601f191682016040526123829190810190613832565b80519091501561246b5760005b81518110156124695760008e6001600160a01b03166322ebeba4878585815181106123b657fe5b60200260200101516040518363ffffffff1660e01b81526004016123db929190613c7a565b60206040518083038186803b1580156123f357600080fd5b505afa158015612407573d6000803e3d6000fd5b505050506040513d601f19601f8201168201806040525081019061242b9190613b11565b9050600081131561244d57612446858263ffffffff612cda16565b9450612460565b61245d848263ffffffff612cda16565b93505b5060010161238f565b505b61247483612d20565b87868151811061248057fe5b60209081029190910101526124a56124a08360001963ffffffff612d4616565b612d20565b8686815181106124b157fe5b602090810291909101015250506001909201915061225a9050565b5092979096509194509092505050565b60008215806124e9575081155b156124f6575060006106ea565b6115636001612527670de0b6b3a76400006119cb8361251b898963ffffffff612a2916565b9063ffffffff6119d716565b9063ffffffff61153e16565b60008060006060856001600160a01b03166399d50d5d6040518163ffffffff1660e01b815260040160006040518083038186803b15801561257357600080fd5b505afa158015612587573d6000803e3d6000fd5b505050506040513d6000823e601f3d908101601f191682016040526125af9190810190613832565b604051634ec9378b60e11b815290915060009073__$66f0e02224a9512332ee418af43d2e46f5$__90639d926f16906125f5906001600160a01b038b1690600401613c4d565b60206040518083038186803b15801561260d57600080fd5b505af4158015612621573d6000803e3d6000fd5b505050506040513d601f19601f820116820180604052508101906126459190613b11565b90506000806126568985858b612db1565b9092509050600061266d838363ffffffff6119d716565b90508460008151811061267c57fe5b60209081029190910101519a909950600098509650505050505050565b60008054604051631d3af8fb60e21b81526001600160a01b03909116906374ebe3ec906126ca908590600401613c4d565b60206040518083038186803b1580156126e257600080fd5b505afa1580156126f6573d6000803e3d6000fd5b505050506040513d601f19601f8201168201806040525081019061271a91906138dd565b80156106ea57506040516335fc6c9f60e21b81526001600160a01b0383169063d7f1b27c9061274d903090600401613c4d565b60206040518083038186803b15801561276557600080fd5b505afa158015612779573d6000803e3d6000fd5b505050506040513d601f19601f820116820180604052508101906106ea91906138dd565b611538846323b872dd60e01b8585856040516024016127be93929190613c94565b60408051601f198184030181529190526020810180516001600160e01b03166001600160e01b0319909316929092179091526131bc565b600080836001600160a01b03166370a08231866040518263ffffffff1660e01b81526004016128249190613c4d565b60206040518083038186803b15801561283c57600080fd5b505afa158015612850573d6000803e3d6000fd5b505050506040513d601f19601f820116820180604052508101906128749190613b11565b90508261288f82670e043da61725000063ffffffff6119ad16565b10156128ad5760405162461bcd60e51b815260040161040390614256565b828110156128bb57806128bd565b825b95945050505050565b801561153857606082826040516024016128e1929190613c61565b60408051601f198184030181529181526020820180516001600160e01b031663a9059cbb60e01b179052516347b7819960e11b81529091506001600160a01b03861690638f6f03329061293d9087906000908690600401613cb8565b600060405180830381600087803b15801561295757600080fd5b505af115801561296b573d6000803e3d6000fd5b505050506040513d6000823e601f3d908101601f1916820160405261299391908101906138f9565b505050505050565b6000816001600160a01b0316836001600160a01b031663481c6a756040518163ffffffff1660e01b815260040160206040518083038186803b1580156129e057600080fd5b505afa1580156129f4573d6000803e3d6000fd5b505050506040513d601f19601f82011682018060405250810190612a189190613816565b6001600160a01b0316149392505050565b600082612a38575060006106ea565b82820282848281612a4557fe5b04146115635760405162461bcd60e51b81526004016104039061432e565b6000808211612a845760405162461bcd60e51b8152600401610403906141e8565b818381612a8d57fe5b049392505050565b6040516353bae5f760e01b81526000906001600160a01b038316906353bae5f79061274d903090600401613c4d565b81516000908190815b81811015612b1757846001600160a01b0316868281518110612aeb57fe5b60200260200101516001600160a01b03161415612b0f57925060019150612b239050565b600101612acd565b50600019600092509250505b9250929050565b60405163a7bdad0360e01b81526060906001600160a01b0387169063a7bdad0390612b59908790600401613c4d565b60006040518083038186803b158015612b7157600080fd5b505afa158015612b85573d6000803e3d6000fd5b505050506040513d6000823e601f3d908101601f19168201604052612bad9190810190613832565b80519091508315612c4c5760005b81811015612c4657828181518110612bcf57fe5b60200260200101516001600160a01b0316630fb96b21898989886040518563ffffffff1660e01b8152600401612c089493929190613e2f565b600060405180830381600087803b158015612c2257600080fd5b505af1158015612c36573d6000803e3d6000fd5b505060019092019150612bbb9050565b506118a8565b60005b8181101561214057828181518110612c6357fe5b60200260200101516001600160a01b031663c137f4d7898989886040518563ffffffff1660e01b8152600401612c9c9493929190613e2f565b600060405180830381600087803b158015612cb657600080fd5b505af1158015612cca573d6000803e3d6000fd5b505060019092019150612c4f9050565b6000828201818312801590612cef5750838112155b80612d045750600083128015612d0457508381125b6115635760405162461bcd60e51b8152600401610403906140fb565b600080821215612d425760405162461bcd60e51b81526004016104039061428b565b5090565b600082612d55575060006106ea565b82600019148015612d695750600160ff1b82145b15612d865760405162461bcd60e51b81526004016104039061439e565b82820282848281612d9357fe5b05146115635760405162461bcd60e51b81526004016104039061439e565b6000806000866001600160a01b03166318160ddd6040518163ffffffff1660e01b815260040160206040518083038186803b158015612def57600080fd5b505afa158015612e03573d6000803e3d6000fd5b505050506040513d601f19601f82011682018060405250810190612e279190613b11565b90506000600360009054906101000a90046001600160a01b03166001600160a01b0316630261bf8b6040518163ffffffff1660e01b815260040160206040518083038186803b158015612e7957600080fd5b505afa158015612e8d573d6000803e3d6000fd5b505050506040513d601f19601f82011682018060405250810190612eb19190613816565b9050600080826001600160a01b031663bf92857c8b6040518263ffffffff1660e01b8152600401612ee29190613c4d565b60c06040518083038186803b158015612efa57600080fd5b505afa158015612f0e573d6000803e3d6000fd5b505050506040513d601f19601f82011682018060405250810190612f329190613b29565b5050505091509150866130445761303f612f688a600081518110612f5257fe5b60200260200101516001600160a01b0316613250565b6130338c6001600160a01b031673__$66f0e02224a9512332ee418af43d2e46f5$__637181fb8a9091600360009054906101000a90046001600160a01b031660006040518463ffffffff1660e01b8152600401612fc793929190613dd4565b60206040518083038186803b158015612fdf57600080fd5b505af4158015612ff3573d6000803e3d6000fd5b505050506040513d601f19601f820116820180604052508101906130179190613b11565b613027868963ffffffff61326716565b9063ffffffff61326716565b9063ffffffff6119ad16565b6130e7565b6130e76130da8b6001600160a01b03166366cb8d2f8c60008151811061306657fe5b60200260200101516040518263ffffffff1660e01b815260040161308a9190613c4d565b60206040518083038186803b1580156130a257600080fd5b505afa1580156130b6573d6000803e3d6000fd5b505050506040513d601f19601f820116820180604052508101906124a09190613b11565b899063ffffffff6124dc16565b60035490965073__$66f0e02224a9512332ee418af43d2e46f5$__90634853af7e906001600160a01b03808e16911661311e613285565b856040518563ffffffff1660e01b815260040161313e9493929190613daa565b60206040518083038186803b15801561315657600080fd5b505af415801561316a573d6000803e3d6000fd5b505050506040513d601f19601f8201168201806040525081019061318e9190613b11565b9050866131aa576131a5818563ffffffff61332416565b6131ad565b60005b94505050505094509492505050565b6060613211826040518060400160405280602081526020017f5361666545524332303a206c6f772d6c6576656c2063616c6c206661696c6564815250856001600160a01b03166133779092919063ffffffff16565b80519091501561324b578080602001905181019061322f91906138dd565b61324b5760405162461bcd60e51b815260040161040390614644565b505050565b600061325b82613386565b60ff16600a0a92915050565b6000611563826119cb85670de0b6b3a764000063ffffffff612a2916565b60006132af604051806040016040528060078152602001660554e49535741560cc1b8152506133e3565b6001600160a01b031663334fc2896040518163ffffffff1660e01b815260040160206040518083038186803b1580156132e757600080fd5b505afa1580156132fb573d6000803e3d6000fd5b505050506040513d601f19601f8201168201806040525081019061331f9190613816565b905090565b6000816133435760405162461bcd60e51b815260040161040390614782565b60008311613352576000611563565b6115636001612527846119cb8361251b89670de0b6b3a764000063ffffffff612a2916565b606061142f84846000856133fa565b6040805160048152602481019091526020810180516001600160e01b031663313ce56760e01b17905260009060606133cd6001600160a01b0385168363ffffffff6134bb16565b90508080602001905181019061142f9190613b72565b6000806133ef836134e0565b9050611563816134eb565b60608247101561341c5760405162461bcd60e51b815260040161040390614173565b613425856135a8565b6134415760405162461bcd60e51b815260040161040390614518565b60006060866001600160a01b0316858760405161345e9190613c31565b60006040518083038185875af1925050503d806000811461349b576040519150601f19603f3d011682016040523d82523d6000602084013e6134a0565b606091505b50915091506134b08282866135ae565b979650505050505050565b60606115638383604051806060016040528060258152602001614871602591396135e7565b805160209091012090565b600080548190613503906001600160a01b0316613684565b6001600160a01b031663e6d642c530856040518363ffffffff1660e01b8152600401613530929190613c61565b60206040518083038186803b15801561354857600080fd5b505afa15801561355c573d6000803e3d6000fd5b505050506040513d601f19601f820116820180604052508101906135809190613816565b90506001600160a01b0381166106ea5760405162461bcd60e51b8152600401610403906141b9565b3b151590565b606083156135bd575081611563565b8251156135cd5782518084602001fd5b8160405162461bcd60e51b81526004016104039190613e59565b60606135f2846135a8565b61360e5760405162461bcd60e51b81526004016104039061448d565b60006060856001600160a01b03168560405161362a9190613c31565b600060405180830381855afa9150503d8060008114613665576040519150601f19603f3d011682016040523d82523d6000602084013e61366a565b606091505b509150915061367a8282866135ae565b9695505050505050565b6040516373b2e76b60e11b81526000906001600160a01b0383169063e765ced6906136b39084906004016147ac565b60206040518083038186803b1580156136cb57600080fd5b505afa1580156136df573d6000803e3d6000fd5b505050506040513d601f19601f820116820180604052508101906106ea9190613816565b508054600082559060005260206000209081019061139391906137ca565b6040518060c0016040528060008152602001600081526020016000815260200160006001600160a01b0316815260200160006001600160a01b03168152602001606081525090565b8280548282559060005260206000209081019282156137be579160200282015b828111156137be57825182546001600160a01b0319166001600160a01b03909116178255602090920191600190910190613789565b50612d429291506137e7565b6137e491905b80821115612d4257600081556001016137d0565b90565b6137e491905b80821115612d425780546001600160a01b03191681556001016137ed565b80516106ea8161484d565b600060208284031215613827578081fd5b81516115638161484d565b60006020808385031215613844578182fd5b825167ffffffffffffffff8082111561385b578384fd5b81850186601f82011261386c578485fd5b805192508183111561387c578485fd5b838302915061388c8483016147fa565b8381528481019082860184840187018a10156138a6578788fd5b8794505b858510156138d0576138bc8a8261380b565b8352600194909401939186019186016138aa565b5098975050505050505050565b6000602082840312156138ee578081fd5b815161156381614862565b60006020828403121561390a578081fd5b815167ffffffffffffffff80821115613921578283fd5b81840185601f820112613932578384fd5b8051925081831115613942578384fd5b613955601f8401601f19166020016147fa565b915082825285602084830101111561396b578384fd5b61397c836020840160208401614821565b50949350505050565b600060208284031215613996578081fd5b81356115638161484d565b600080604083850312156139b3578081fd5b82356139be8161484d565b915060208301356139ce8161484d565b809150509250929050565b600080604083850312156139eb578182fd5b82356139f68161484d565b946020939093013593505050565b60008060008060808587031215613a19578182fd5b8435613a248161484d565b9350602085013592506040850135613a3b8161484d565b9396929550929360600135925050565b600080600060608486031215613a5f578283fd5b8335613a6a8161484d565b9250602084013591506040840135613a8181614862565b809150509250925092565b60008060008060008060c08789031215613aa4578182fd5b8635613aaf8161484d565b95506020870135945060408701359350606087013592506080870135613ad48161484d565b915060a0870135613ae48161484d565b809150509295509295509295565b600060208284031215613b03578081fd5b815160038110611563578182fd5b600060208284031215613b22578081fd5b5051919050565b60008060008060008060c08789031215613b41578384fd5b865195506020870151945060408701519350606087015192506080870151915060a087015190509295509295509295565b600060208284031215613b83578081fd5b815160ff81168114611563578182fd5b6000815180845260208085019450808401835b83811015613bcb5781516001600160a01b031687529582019590820190600101613ba6565b509495945050505050565b6000815180845260208085019450808401835b83811015613bcb57815187529582019590820190600101613be9565b60008151808452613c1d816020860160208601614821565b601f01601f19169290920160200192915050565b60008251613c43818460208701614821565b9190910192915050565b6001600160a01b0391909116815260200190565b6001600160a01b03929092168252602082015260400190565b6001600160a01b0392831681529116602082015260400190565b6001600160a01b039384168152919092166020820152604081019190915260600190565b600060018060a01b0385168252836020830152606060408301526128bd6060830184613c05565b6001600160a01b0393841681526020810192909252909116604082015260600190565b6001600160a01b03948516815260208101939093529216604082015261ffff909116606082015260800190565b6001600160a01b0394909416845260208401929092526040830152606082015260800190565b6000602082526115636020830184613b93565b600060608252613d7b6060830186613b93565b8281036020840152613d8d8186613bd6565b83810360408501526134b08186613bd6565b901515815260200190565b6001600160a01b039485168152928416602084015292166040820152606081019190915260800190565b6001600160a01b038481168252831660208201526060810160028310613df657fe5b826040830152949350505050565b6001600160a01b03948516815260208101939093529083166040830152909116606082015260800190565b6001600160a01b039485168152602081019390935292166040820152901515606082015260800190565b6000602082526115636020830184613c05565b60208082526015908201527420b2323932b9b9903737ba1034b71030b93930bc9760591b604082015260600190565b6020808252601f908201527f52656465656d206665652063616e277420657863656564206d6178696d756d00604082015260600190565b60208082526016908201527514d85b59481c995919595b48199959481c185cdcd95960521b604082015260600190565b60208082526028908201527f4d75737420626520612076616c696420616e6420696e697469616c697a65642060408201526729b2ba2a37b5b2b760c11b606082015260800190565b60208082526019908201527f616d6f756e74206c657373207468616e20736c69707061676500000000000000604082015260600190565b60208082526016908201527526b7b23ab632903737ba103932b3b4b9ba32b932b21760511b604082015260600190565b6020808252601b908201527f52656465656d207175616e74697479206d757374206265203e20300000000000604082015260600190565b6020808252601b908201527f536166654d6174683a206164646974696f6e206f766572666c6f770000000000604082015260600190565b6020808252601e908201527f4d7573742062652070656e64696e6720696e697469616c697a6174696f6e0000604082015260600190565b60208082526017908201527f72656465656d3a205769746864726177204661696c6564000000000000000000604082015260600190565b6020808252601e908201527f4973737565206665652063616e277420657863656564206d6178696d756d0000604082015260600190565b6020808252601a908201527f4973737565207175616e74697479206d757374206265203e2030000000000000604082015260600190565b60208082526021908201527f5369676e6564536166654d6174683a206164646974696f6e206f766572666c6f6040820152607760f81b606082015260800190565b6020808252601e908201527f536166654d6174683a207375627472616374696f6e206f766572666c6f770000604082015260600190565b60208082526026908201527f416464726573733a20696e73756666696369656e742062616c616e636520666f6040820152651c8818d85b1b60d21b606082015260800190565b60208082526015908201527426bab9ba103132903b30b634b21030b230b83a32b960591b604082015260600190565b6020808252601a908201527f536166654d6174683a206469766973696f6e206279207a65726f000000000000604082015260600190565b60208082526018908201527f616d6f756e7420657863656564656420736c6970706167650000000000000000604082015260600190565b6020808252818101527f416d6f756e74206578636565647320617661696c61626c652062616c616e6365604082015260600190565b6020808252818101527f53616665436173743a2076616c7565206d75737420626520706f736974697665604082015260600190565b60208082526018908201527f4f6e6c7920746865206d6f64756c652063616e2063616c6c0000000000000000604082015260600190565b6020808252601a908201527f4e6f20737570706c79206f662073657420746f2072656465656d000000000000604082015260600190565b60208082526021908201527f536166654d6174683a206d756c7469706c69636174696f6e206f766572666c6f6040820152607760f81b606082015260800190565b60208082526015908201527414d85b59481a5cdcdd5948199959481c185cdcd959605a1b604082015260600190565b60208082526027908201527f5369676e6564536166654d6174683a206d756c7469706c69636174696f6e206f604082015266766572666c6f7760c81b606082015260800190565b6020808252601590820152741a5cdcdd594e8811195c1bdcda5d0811985a5b1959605a1b604082015260600190565b60208082526022908201527f4973737565206665652063616e277420657863656564206d6178696d756d2066604082015261656560f01b606082015260800190565b60208082526019908201527f53616d652066656520726563697069656e742070617373656400000000000000604082015260600190565b60208082526024908201527f416464726573733a207374617469632063616c6c20746f206e6f6e2d636f6e746040820152631c9858dd60e21b606082015260800190565b60208082526027908201527f46656520526563697069656e74206d757374206265206e6f6e2d7a65726f206160408201526632323932b9b99760c91b606082015260800190565b6020808252601d908201527f416464726573733a2063616c6c20746f206e6f6e2d636f6e7472616374000000604082015260600190565b6020808252601a908201527f4d6f64756c6520616c726561647920726567697374657265642e000000000000604082015260600190565b60208082526024908201527f4d6f64756c65206d75737420626520656e61626c6564206f6e20636f6e74726f604082015263363632b960e11b606082015260800190565b60208082526023908201527f4d75737420626520636f6e74726f6c6c65722d656e61626c656420536574546f60408201526235b2b760e91b606082015260800190565b6020808252601c908201527f4d7573742062652074686520536574546f6b656e206d616e6167657200000000604082015260600190565b6020808252602a908201527f5361666545524332303a204552433230206f7065726174696f6e20646964206e6040820152691bdd081cdd58d8d9595960b21b606082015260800190565b60208082526023908201527f52656769737465726564206d6f64756c6573206d7573742062652072656d6f7660408201526232b21760e91b606082015260800190565b6020808252601f908201527f5265656e7472616e637947756172643a207265656e7472616e742063616c6c00604082015260600190565b60208082526023908201527f52656465656d206665652063616e277420657863656564206d6178696d756d2060408201526266656560e81b606082015260800190565b60208082526018908201527f7175616e7469747920657863656564732062616c616e63650000000000000000604082015260600190565b60208082526010908201526f043616e742064697669646520627920360841b604082015260600190565b90815260200190565b9283526020830191909152604082015260600190565b948552602085019390935260408401919091526001600160a01b03908116606084015216608082015260a00190565b60405181810167ffffffffffffffff8111828210171561481957600080fd5b604052919050565b60005b8381101561483c578181015183820152602001614824565b838111156115385750506000910152565b6001600160a01b038116811461139357600080fd5b801515811461139357600080fdfe416464726573733a206c6f772d6c6576656c207374617469632063616c6c206661696c6564a2646970667358221220cc6a3445508ad426d1959f35018658cb36c4da31024c62bfb93b7d391f885a0164736f6c634300060a0033",
  "linkReferences": {
    "contracts/lib/IndexUtils.sol": {
      "IndexUtils": [
        {
          "length": 20,
          "start": 9877
        },
        {
          "length": 20,
          "start": 12360
        },
        {
          "length": 20,
          "start": 12736
        }
      ]
    }
  },
  "deployedLinkReferences": {
    "contracts/lib/IndexUtils.sol": {
      "IndexUtils": [
        {
          "length": 20,
          "start": 9668
        },
        {
          "length": 20,
          "start": 12151
        },
        {
          "length": 20,
          "start": 12527
        }
      ]
    }
  }
}